{
  "contractName": "Transit",
  "abi": [
    {
      "anonymous": false,
      "inputs": [
        {
          "indexed": true,
          "internalType": "address",
          "name": "sender",
          "type": "address"
        },
        {
          "indexed": false,
          "internalType": "string",
          "name": "message",
          "type": "string"
        }
      ],
      "name": "tempTamper",
      "type": "event"
    },
    {
      "inputs": [
        {
          "internalType": "uint256",
          "name": "",
          "type": "uint256"
        }
      ],
      "name": "transits",
      "outputs": [
        {
          "internalType": "address",
          "name": "sender",
          "type": "address"
        },
        {
          "internalType": "address",
          "name": "receiver",
          "type": "address"
        },
        {
          "internalType": "uint256",
          "name": "pickupTime",
          "type": "uint256"
        },
        {
          "internalType": "uint256",
          "name": "deliveryTime",
          "type": "uint256"
        },
        {
          "internalType": "enum Transit.transitStatus",
          "name": "status",
          "type": "uint8"
        }
      ],
      "stateMutability": "view",
      "type": "function"
    },
    {
      "inputs": [
        {
          "internalType": "uint256",
          "name": "_transitId",
          "type": "uint256"
        },
        {
          "internalType": "address",
          "name": "_sender",
          "type": "address"
        },
        {
          "internalType": "address",
          "name": "_receiver",
          "type": "address"
        }
      ],
      "name": "createTransit",
      "outputs": [],
      "stateMutability": "nonpayable",
      "type": "function"
    },
    {
      "inputs": [
        {
          "internalType": "uint256",
          "name": "_transitId",
          "type": "uint256"
        },
        {
          "internalType": "address",
          "name": "_receiver",
          "type": "address"
        }
      ],
      "name": "startTransit",
      "outputs": [],
      "stateMutability": "nonpayable",
      "type": "function"
    },
    {
      "inputs": [
        {
          "internalType": "uint256",
          "name": "_transitId",
          "type": "uint256"
        },
        {
          "internalType": "address",
          "name": "_sender",
          "type": "address"
        }
      ],
      "name": "receiveTransit",
      "outputs": [],
      "stateMutability": "nonpayable",
      "type": "function"
    },
    {
      "inputs": [],
      "name": "getallTransit",
      "outputs": [
        {
          "components": [
            {
              "internalType": "address",
              "name": "sender",
              "type": "address"
            },
            {
              "internalType": "address",
              "name": "receiver",
              "type": "address"
            },
            {
              "internalType": "uint256",
              "name": "pickupTime",
              "type": "uint256"
            },
            {
              "internalType": "uint256",
              "name": "deliveryTime",
              "type": "uint256"
            },
            {
              "internalType": "enum Transit.transitStatus",
              "name": "status",
              "type": "uint8"
            }
          ],
          "internalType": "struct Transit.Details[]",
          "name": "",
          "type": "tuple[]"
        }
      ],
      "stateMutability": "view",
      "type": "function"
    },
    {
      "inputs": [
        {
          "internalType": "uint256",
          "name": "_transitID",
          "type": "uint256"
        }
      ],
      "name": "tempTampered",
      "outputs": [],
      "stateMutability": "nonpayable",
      "type": "function"
    }
  ],
  "bytecode": "0x608060405234801561001057600080fd5b50610fd7806100206000396000f3fe608060405234801561001057600080fd5b50600436106100625760003560e01c806337e90b151461006757806338e93ddd146100835780636e7d438b1461009f5780636fab5860146100bd578063a7638b0d146100d9578063de80d540146100f5575b600080fd5b610081600480360381019061007c9190610ad2565b610129565b005b61009d60048036038101906100989190610b25565b61027d565b005b6100a7610433565b6040516100b49190610d11565b60405180910390f35b6100d760048036038101906100d29190610b25565b61058d565b005b6100f360048036038101906100ee9190610d33565b6108a1565b005b61010f600480360381019061010a9190610d33565b6109b6565b604051610120959493929190610d8d565b60405180910390f35b6040518060a001604052808373ffffffffffffffffffffffffffffffffffffffff1681526020018273ffffffffffffffffffffffffffffffffffffffff16815260200160008152602001600081526020016000600481111561018e5761018d610baf565b5b81525060008085815260200190815260200160002060008201518160000160006101000a81548173ffffffffffffffffffffffffffffffffffffffff021916908373ffffffffffffffffffffffffffffffffffffffff16021790555060208201518160010160006101000a81548173ffffffffffffffffffffffffffffffffffffffff021916908373ffffffffffffffffffffffffffffffffffffffff160217905550604082015181600201556060820151816003015560808201518160040160006101000a81548160ff021916908360048111156102705761026f610baf565b5b0217905550905050505050565b600080600084815260200190815260200160002090503373ffffffffffffffffffffffffffffffffffffffff168160000160009054906101000a900473ffffffffffffffffffffffffffffffffffffffff1673ffffffffffffffffffffffffffffffffffffffff1614801561034157508173ffffffffffffffffffffffffffffffffffffffff168160010160009054906101000a900473ffffffffffffffffffffffffffffffffffffffff1673ffffffffffffffffffffffffffffffffffffffff16145b610380576040517f08c379a000000000000000000000000000000000000000000000000000000000815260040161037790610e3d565b60405180910390fd5b6000600481111561039457610393610baf565b5b8160040160009054906101000a900460ff1660048111156103b8576103b7610baf565b5b146103f8576040517f08c379a00000000000000000000000000000000000000000000000000000000081526004016103ef90610ea9565b60405180910390fd5b60018160040160006101000a81548160ff021916908360048111156104205761041f610baf565b5b0217905550428160020181905550505050565b60606001805480602002602001604051908101604052809291908181526020016000905b8282101561058457838290600052602060002090600502016040518060a00160405290816000820160009054906101000a900473ffffffffffffffffffffffffffffffffffffffff1673ffffffffffffffffffffffffffffffffffffffff1673ffffffffffffffffffffffffffffffffffffffff1681526020016001820160009054906101000a900473ffffffffffffffffffffffffffffffffffffffff1673ffffffffffffffffffffffffffffffffffffffff1673ffffffffffffffffffffffffffffffffffffffff16815260200160028201548152602001600382015481526020016004820160009054906101000a900460ff16600481111561055f5761055e610baf565b5b600481111561057157610570610baf565b5b8152505081526020019060010190610457565b50505050905090565b600080600084815260200190815260200160002090508173ffffffffffffffffffffffffffffffffffffffff168160000160009054906101000a900473ffffffffffffffffffffffffffffffffffffffff1673ffffffffffffffffffffffffffffffffffffffff1614801561065157503373ffffffffffffffffffffffffffffffffffffffff168160010160009054906101000a900473ffffffffffffffffffffffffffffffffffffffff1673ffffffffffffffffffffffffffffffffffffffff16145b610690576040517f08c379a000000000000000000000000000000000000000000000000000000000815260040161068790610f15565b60405180910390fd5b600160048111156106a4576106a3610baf565b5b8160040160009054906101000a900460ff1660048111156106c8576106c7610baf565b5b14610708576040517f08c379a00000000000000000000000000000000000000000000000000000000081526004016106ff90610ea9565b60405180910390fd5b60028160040160006101000a81548160ff021916908360048111156107305761072f610baf565b5b0217905550428160030181905550600160008085815260200190815260200160002090806001815401808255809150506001900390600052602060002090600502016000909190919091506000820160009054906101000a900473ffffffffffffffffffffffffffffffffffffffff168160000160006101000a81548173ffffffffffffffffffffffffffffffffffffffff021916908373ffffffffffffffffffffffffffffffffffffffff1602179055506001820160009054906101000a900473ffffffffffffffffffffffffffffffffffffffff168160010160006101000a81548173ffffffffffffffffffffffffffffffffffffffff021916908373ffffffffffffffffffffffffffffffffffffffff16021790555060028201548160020155600382015481600301556004820160009054906101000a900460ff168160040160006101000a81548160ff0219169083600481111561089557610894610baf565b5b02179055505050505050565b60008060008381526020019081526020016000209050600160048111156108cb576108ca610baf565b5b8160040160009054906101000a900460ff1660048111156108ef576108ee610baf565b5b148061093057506002600481111561090a57610909610baf565b5b8160040160009054906101000a900460ff16600481111561092e5761092d610baf565b5b145b61093957600080fd5b60048160040160006101000a81548160ff0219169083600481111561096157610960610baf565b5b02179055503373ffffffffffffffffffffffffffffffffffffffff167febe5ea6fdaa4dce13ba59c8ef9edde817bbaf51776984917cca72795d59756a96040516109aa90610f81565b60405180910390a25050565b60006020528060005260406000206000915090508060000160009054906101000a900473ffffffffffffffffffffffffffffffffffffffff16908060010160009054906101000a900473ffffffffffffffffffffffffffffffffffffffff16908060020154908060030154908060040160009054906101000a900460ff16905085565b600080fd5b6000819050919050565b610a5181610a3e565b8114610a5c57600080fd5b50565b600081359050610a6e81610a48565b92915050565b600073ffffffffffffffffffffffffffffffffffffffff82169050919050565b6000610a9f82610a74565b9050919050565b610aaf81610a94565b8114610aba57600080fd5b50565b600081359050610acc81610aa6565b92915050565b600080600060608486031215610aeb57610aea610a39565b5b6000610af986828701610a5f565b9350506020610b0a86828701610abd565b9250506040610b1b86828701610abd565b9150509250925092565b60008060408385031215610b3c57610b3b610a39565b5b6000610b4a85828601610a5f565b9250506020610b5b85828601610abd565b9150509250929050565b600081519050919050565b600082825260208201905092915050565b6000819050602082019050919050565b610b9a81610a94565b82525050565b610ba981610a3e565b82525050565b7f4e487b7100000000000000000000000000000000000000000000000000000000600052602160045260246000fd5b60058110610bef57610bee610baf565b5b50565b6000819050610c0082610bde565b919050565b6000610c1082610bf2565b9050919050565b610c2081610c05565b82525050565b60a082016000820151610c3c6000850182610b91565b506020820151610c4f6020850182610b91565b506040820151610c626040850182610ba0565b506060820151610c756060850182610ba0565b506080820151610c886080850182610c17565b50505050565b6000610c9a8383610c26565b60a08301905092915050565b6000602082019050919050565b6000610cbe82610b65565b610cc88185610b70565b9350610cd383610b81565b8060005b83811015610d04578151610ceb8882610c8e565b9750610cf683610ca6565b925050600181019050610cd7565b5085935050505092915050565b60006020820190508181036000830152610d2b8184610cb3565b905092915050565b600060208284031215610d4957610d48610a39565b5b6000610d5784828501610a5f565b91505092915050565b610d6981610a94565b82525050565b610d7881610a3e565b82525050565b610d8781610c05565b82525050565b600060a082019050610da26000830188610d60565b610daf6020830187610d60565b610dbc6040830186610d6f565b610dc96060830185610d6f565b610dd66080830184610d7e565b9695505050505050565b600082825260208201905092915050565b7f496e76616c69642073656e646572206f72207265636965766572000000000000600082015250565b6000610e27601a83610de0565b9150610e3282610df1565b602082019050919050565b60006020820190508181036000830152610e5681610e1a565b9050919050565b7f496e76616c6964207472616e7369742073746174757300000000000000000000600082015250565b6000610e93601683610de0565b9150610e9e82610e5d565b602082019050919050565b60006020820190508181036000830152610ec281610e86565b9050919050565b7f496e76616c69642073656e646572206f72207265636569766572000000000000600082015250565b6000610eff601a83610de0565b9150610f0a82610ec9565b602082019050919050565b60006020820190508181036000830152610f2e81610ef2565b9050919050565b7f54414d5045524544000000000000000000000000000000000000000000000000600082015250565b6000610f6b600883610de0565b9150610f7682610f35565b602082019050919050565b60006020820190508181036000830152610f9a81610f5e565b905091905056fea2646970667358221220fd021b8f61fd11a0fcf6bcb4b848369d04768d918c3cb703769b4f5af710f5b764736f6c63430008130033",
  "immutableReferences": {},
  "source": "// SPDX-License-Identifier: MIT\r\npragma solidity 0.8.19;\r\n\r\ncontract Transit {\r\n    enum transitStatus{PENDING, IN_TRANSIT, RECIEVED, RECEIEVED_FINAL, TAMPERED}\r\n    \r\n    event tempTamper(address indexed sender, string message);\r\n\r\n    struct Details {\r\n        address sender;\r\n        address receiver;\r\n        uint pickupTime;\r\n        uint deliveryTime;\r\n        transitStatus status;\r\n    }\r\n\r\n    mapping(uint => Details) public transits;\r\n\r\n    Details[] transitArray;\r\n\r\n    function createTransit(uint _transitId, address _sender, address _receiver) external {\r\n        transits[_transitId] = Details(_sender, _receiver,0, 0, transitStatus.PENDING);\r\n        \r\n    }\r\n\r\n    function startTransit(uint _transitId, address _receiver) external {\r\n        Details storage detail = transits[_transitId];\r\n        require(detail.sender == msg.sender && detail.receiver == _receiver, \"Invalid sender or reciever\");\r\n        require(detail.status == transitStatus.PENDING,\"Invalid transit status\");\r\n        detail.status = transitStatus.IN_TRANSIT;\r\n        detail.pickupTime = block.timestamp;\r\n    }\r\n\r\n    function receiveTransit(uint _transitId, address _sender) external {\r\n        Details storage detail = transits[_transitId];\r\n        require(detail.sender == _sender && detail.receiver == msg.sender,\"Invalid sender or receiver\");\r\n        require(detail.status == transitStatus.IN_TRANSIT,\"Invalid transit status\");\r\n        detail.status = transitStatus.RECIEVED;\r\n        detail.deliveryTime  = block.timestamp;\r\n        transitArray.push(transits[_transitId]);\r\n    }\r\n\r\n    function getallTransit() public view returns (Details[] memory) {\r\n        return transitArray;\r\n    }\r\n\r\n    function tempTampered(uint _transitID) external {\r\n        Details storage detail = transits[_transitID];\r\n        require(detail.status == transitStatus.IN_TRANSIT || detail.status == transitStatus.RECIEVED);\r\n        detail.status = transitStatus.TAMPERED;\r\n        emit tempTamper(msg.sender, \"TAMPERED\");\r\n    }\r\n}",
  "sourcePath": "C:\\Users\\Hp\\Projects\\blockchain\\VaxChain\\contracts\\transit.sol",
  "compiler": {
    "name": "solc",
    "version": "0.8.19+commit.7dd6d404.Emscripten.clang"
  },
  "schemaVersion": "3.4.16",
  "updatedAt": "2024-03-08T04:19:15.998Z",
  "devdoc": {
    "kind": "dev",
    "methods": {},
    "version": 1
  },
  "userdoc": {
    "kind": "user",
    "methods": {},
    "version": 1
  }
}