{
  "contractAddress": "0x1817143e0cB6e34402628dBf6f17998781D8971c",
  "contractName": "Transit",
  "abi": [
    {
      "inputs": [],
      "stateMutability": "nonpayable",
      "type": "constructor"
    },
    {
      "anonymous": false,
      "inputs": [
        {
          "indexed": true,
          "internalType": "address",
          "name": "previousOwner",
          "type": "address"
        },
        {
          "indexed": true,
          "internalType": "address",
          "name": "newOwner",
          "type": "address"
        }
      ],
      "name": "OwnershipTransferred",
      "type": "event"
    },
    {
      "anonymous": false,
      "inputs": [
        {
          "indexed": true,
          "internalType": "bytes32",
          "name": "role",
          "type": "bytes32"
        },
        {
          "indexed": true,
          "internalType": "bytes32",
          "name": "previousAdminRole",
          "type": "bytes32"
        },
        {
          "indexed": true,
          "internalType": "bytes32",
          "name": "newAdminRole",
          "type": "bytes32"
        }
      ],
      "name": "RoleAdminChanged",
      "type": "event"
    },
    {
      "anonymous": false,
      "inputs": [
        {
          "indexed": true,
          "internalType": "bytes32",
          "name": "role",
          "type": "bytes32"
        },
        {
          "indexed": true,
          "internalType": "address",
          "name": "account",
          "type": "address"
        },
        {
          "indexed": true,
          "internalType": "address",
          "name": "sender",
          "type": "address"
        }
      ],
      "name": "RoleGranted",
      "type": "event"
    },
    {
      "anonymous": false,
      "inputs": [
        {
          "indexed": true,
          "internalType": "bytes32",
          "name": "role",
          "type": "bytes32"
        },
        {
          "indexed": true,
          "internalType": "address",
          "name": "account",
          "type": "address"
        },
        {
          "indexed": true,
          "internalType": "address",
          "name": "sender",
          "type": "address"
        }
      ],
      "name": "RoleRevoked",
      "type": "event"
    },
    {
      "anonymous": false,
      "inputs": [
        {
          "indexed": true,
          "internalType": "address",
          "name": "sender",
          "type": "address"
        },
        {
          "indexed": false,
          "internalType": "string",
          "name": "message",
          "type": "string"
        }
      ],
      "name": "Tampered",
      "type": "event"
    },
    {
      "anonymous": false,
      "inputs": [
        {
          "indexed": true,
          "internalType": "address",
          "name": "sender",
          "type": "address"
        },
        {
          "indexed": false,
          "internalType": "string",
          "name": "message",
          "type": "string"
        }
      ],
      "name": "TransitCreated",
      "type": "event"
    },
    {
      "anonymous": false,
      "inputs": [
        {
          "indexed": true,
          "internalType": "address",
          "name": "sender",
          "type": "address"
        },
        {
          "indexed": false,
          "internalType": "string",
          "name": "message",
          "type": "string"
        }
      ],
      "name": "TransitReceived",
      "type": "event"
    },
    {
      "anonymous": false,
      "inputs": [
        {
          "indexed": true,
          "internalType": "address",
          "name": "sender",
          "type": "address"
        },
        {
          "indexed": false,
          "internalType": "string",
          "name": "message",
          "type": "string"
        }
      ],
      "name": "TransitStarted",
      "type": "event"
    },
    {
      "inputs": [],
      "name": "DEFAULT_ADMIN_ROLE",
      "outputs": [
        {
          "internalType": "bytes32",
          "name": "",
          "type": "bytes32"
        }
      ],
      "stateMutability": "view",
      "type": "function",
      "constant": true
    },
    {
      "inputs": [],
      "name": "MANAGER_ROLE",
      "outputs": [
        {
          "internalType": "bytes32",
          "name": "",
          "type": "bytes32"
        }
      ],
      "stateMutability": "view",
      "type": "function",
      "constant": true
    },
    {
      "inputs": [
        {
          "internalType": "uint256",
          "name": "",
          "type": "uint256"
        }
      ],
      "name": "allTransits",
      "outputs": [
        {
          "internalType": "uint256",
          "name": "transitId",
          "type": "uint256"
        },
        {
          "internalType": "address",
          "name": "sender",
          "type": "address"
        },
        {
          "internalType": "address",
          "name": "receiver",
          "type": "address"
        },
        {
          "internalType": "uint256",
          "name": "pickupTime",
          "type": "uint256"
        },
        {
          "internalType": "uint256",
          "name": "deliveryTime",
          "type": "uint256"
        },
        {
          "internalType": "enum Transit.transitStatus",
          "name": "status",
          "type": "uint8"
        }
      ],
      "stateMutability": "view",
      "type": "function",
      "constant": true
    },
    {
      "inputs": [
        {
          "internalType": "bytes32",
          "name": "role",
          "type": "bytes32"
        }
      ],
      "name": "getRoleAdmin",
      "outputs": [
        {
          "internalType": "bytes32",
          "name": "",
          "type": "bytes32"
        }
      ],
      "stateMutability": "view",
      "type": "function",
      "constant": true
    },
    {
      "inputs": [
        {
          "internalType": "bytes32",
          "name": "role",
          "type": "bytes32"
        },
        {
          "internalType": "address",
          "name": "account",
          "type": "address"
        }
      ],
      "name": "grantRole",
      "outputs": [],
      "stateMutability": "nonpayable",
      "type": "function"
    },
    {
      "inputs": [
        {
          "internalType": "bytes32",
          "name": "role",
          "type": "bytes32"
        },
        {
          "internalType": "address",
          "name": "account",
          "type": "address"
        }
      ],
      "name": "hasRole",
      "outputs": [
        {
          "internalType": "bool",
          "name": "",
          "type": "bool"
        }
      ],
      "stateMutability": "view",
      "type": "function",
      "constant": true
    },
    {
      "inputs": [],
      "name": "owner",
      "outputs": [
        {
          "internalType": "address",
          "name": "",
          "type": "address"
        }
      ],
      "stateMutability": "view",
      "type": "function",
      "constant": true
    },
    {
      "inputs": [],
      "name": "renounceOwnership",
      "outputs": [],
      "stateMutability": "nonpayable",
      "type": "function"
    },
    {
      "inputs": [
        {
          "internalType": "bytes32",
          "name": "role",
          "type": "bytes32"
        },
        {
          "internalType": "address",
          "name": "account",
          "type": "address"
        }
      ],
      "name": "renounceRole",
      "outputs": [],
      "stateMutability": "nonpayable",
      "type": "function"
    },
    {
      "inputs": [
        {
          "internalType": "bytes32",
          "name": "role",
          "type": "bytes32"
        },
        {
          "internalType": "address",
          "name": "account",
          "type": "address"
        }
      ],
      "name": "revokeRole",
      "outputs": [],
      "stateMutability": "nonpayable",
      "type": "function"
    },
    {
      "inputs": [
        {
          "internalType": "bytes4",
          "name": "interfaceId",
          "type": "bytes4"
        }
      ],
      "name": "supportsInterface",
      "outputs": [
        {
          "internalType": "bool",
          "name": "",
          "type": "bool"
        }
      ],
      "stateMutability": "view",
      "type": "function",
      "constant": true
    },
    {
      "inputs": [
        {
          "internalType": "address",
          "name": "newOwner",
          "type": "address"
        }
      ],
      "name": "transferOwnership",
      "outputs": [],
      "stateMutability": "nonpayable",
      "type": "function"
    },
    {
      "inputs": [
        {
          "internalType": "address",
          "name": "",
          "type": "address"
        },
        {
          "internalType": "uint256",
          "name": "",
          "type": "uint256"
        }
      ],
      "name": "transitIdsByAddress",
      "outputs": [
        {
          "internalType": "uint256",
          "name": "",
          "type": "uint256"
        }
      ],
      "stateMutability": "view",
      "type": "function",
      "constant": true
    },
    {
      "inputs": [
        {
          "internalType": "uint256",
          "name": "",
          "type": "uint256"
        }
      ],
      "name": "transits",
      "outputs": [
        {
          "internalType": "uint256",
          "name": "transitId",
          "type": "uint256"
        },
        {
          "internalType": "address",
          "name": "sender",
          "type": "address"
        },
        {
          "internalType": "address",
          "name": "receiver",
          "type": "address"
        },
        {
          "internalType": "uint256",
          "name": "pickupTime",
          "type": "uint256"
        },
        {
          "internalType": "uint256",
          "name": "deliveryTime",
          "type": "uint256"
        },
        {
          "internalType": "enum Transit.transitStatus",
          "name": "status",
          "type": "uint8"
        }
      ],
      "stateMutability": "view",
      "type": "function",
      "constant": true
    },
    {
      "inputs": [
        {
          "internalType": "address",
          "name": "manager",
          "type": "address"
        }
      ],
      "name": "registerManager",
      "outputs": [],
      "stateMutability": "nonpayable",
      "type": "function"
    },
    {
      "inputs": [
        {
          "internalType": "address",
          "name": "manager",
          "type": "address"
        }
      ],
      "name": "removeManager",
      "outputs": [],
      "stateMutability": "nonpayable",
      "type": "function"
    },
    {
      "inputs": [
        {
          "internalType": "address",
          "name": "manager",
          "type": "address"
        }
      ],
      "name": "checkManager",
      "outputs": [
        {
          "internalType": "bool",
          "name": "",
          "type": "bool"
        }
      ],
      "stateMutability": "view",
      "type": "function",
      "constant": true
    },
    {
      "inputs": [
        {
          "internalType": "uint256",
          "name": "_transitId",
          "type": "uint256"
        },
        {
          "internalType": "address",
          "name": "_sender",
          "type": "address"
        },
        {
          "internalType": "address",
          "name": "_receiver",
          "type": "address"
        }
      ],
      "name": "createTransit",
      "outputs": [],
      "stateMutability": "nonpayable",
      "type": "function"
    },
    {
      "inputs": [
        {
          "internalType": "uint256",
          "name": "_transitId",
          "type": "uint256"
        },
        {
          "internalType": "address",
          "name": "_receiver",
          "type": "address"
        }
      ],
      "name": "startTransit",
      "outputs": [],
      "stateMutability": "nonpayable",
      "type": "function"
    },
    {
      "inputs": [
        {
          "internalType": "uint256",
          "name": "_transitId",
          "type": "uint256"
        },
        {
          "internalType": "address",
          "name": "_sender",
          "type": "address"
        }
      ],
      "name": "receiveTransit",
      "outputs": [],
      "stateMutability": "nonpayable",
      "type": "function"
    },
    {
      "inputs": [
        {
          "internalType": "uint256",
          "name": "_transitID",
          "type": "uint256"
        }
      ],
      "name": "tempTampered",
      "outputs": [],
      "stateMutability": "nonpayable",
      "type": "function"
    },
    {
      "inputs": [
        {
          "internalType": "address",
          "name": "_address",
          "type": "address"
        }
      ],
      "name": "getTransitsByAddress",
      "outputs": [
        {
          "components": [
            {
              "internalType": "uint256",
              "name": "transitId",
              "type": "uint256"
            },
            {
              "internalType": "address",
              "name": "sender",
              "type": "address"
            },
            {
              "internalType": "address",
              "name": "receiver",
              "type": "address"
            },
            {
              "internalType": "uint256",
              "name": "pickupTime",
              "type": "uint256"
            },
            {
              "internalType": "uint256",
              "name": "deliveryTime",
              "type": "uint256"
            },
            {
              "internalType": "enum Transit.transitStatus",
              "name": "status",
              "type": "uint8"
            }
          ],
          "internalType": "struct Transit.Details[]",
          "name": "",
          "type": "tuple[]"
        }
      ],
      "stateMutability": "view",
      "type": "function",
      "constant": true
    },
    {
      "inputs": [
        {
          "internalType": "uint256",
          "name": "_transitID",
          "type": "uint256"
        }
      ],
      "name": "getTransitbyID",
      "outputs": [
        {
          "components": [
            {
              "internalType": "uint256",
              "name": "transitId",
              "type": "uint256"
            },
            {
              "internalType": "address",
              "name": "sender",
              "type": "address"
            },
            {
              "internalType": "address",
              "name": "receiver",
              "type": "address"
            },
            {
              "internalType": "uint256",
              "name": "pickupTime",
              "type": "uint256"
            },
            {
              "internalType": "uint256",
              "name": "deliveryTime",
              "type": "uint256"
            },
            {
              "internalType": "enum Transit.transitStatus",
              "name": "status",
              "type": "uint8"
            }
          ],
          "internalType": "struct Transit.Details",
          "name": "",
          "type": "tuple"
        }
      ],
      "stateMutability": "view",
      "type": "function",
      "constant": true
    },
    {
      "inputs": [],
      "name": "getAllTransits",
      "outputs": [
        {
          "components": [
            {
              "internalType": "uint256",
              "name": "transitId",
              "type": "uint256"
            },
            {
              "internalType": "address",
              "name": "sender",
              "type": "address"
            },
            {
              "internalType": "address",
              "name": "receiver",
              "type": "address"
            },
            {
              "internalType": "uint256",
              "name": "pickupTime",
              "type": "uint256"
            },
            {
              "internalType": "uint256",
              "name": "deliveryTime",
              "type": "uint256"
            },
            {
              "internalType": "enum Transit.transitStatus",
              "name": "status",
              "type": "uint8"
            }
          ],
          "internalType": "struct Transit.Details[]",
          "name": "",
          "type": "tuple[]"
        }
      ],
      "stateMutability": "view",
      "type": "function",
      "constant": true
    }
  ],
  "bytecode": "0x60806040523480156200001157600080fd5b5062000032620000266200004d60201b60201c565b6200005560201b60201c565b620000476000801b336200011960201b60201c565b62000275565b600033905090565b60008060009054906101000a900473ffffffffffffffffffffffffffffffffffffffff169050816000806101000a81548173ffffffffffffffffffffffffffffffffffffffff021916908373ffffffffffffffffffffffffffffffffffffffff1602179055508173ffffffffffffffffffffffffffffffffffffffff168173ffffffffffffffffffffffffffffffffffffffff167f8be0079c531659141344cd1fd0a4f28419497f9722a3daafe3b4186f6b6457e060405160405180910390a35050565b6200012b82826200020a60201b60201c565b6200020657600180600084815260200190815260200160002060000160008373ffffffffffffffffffffffffffffffffffffffff1673ffffffffffffffffffffffffffffffffffffffff16815260200190815260200160002060006101000a81548160ff021916908315150217905550620001ab6200004d60201b60201c565b73ffffffffffffffffffffffffffffffffffffffff168173ffffffffffffffffffffffffffffffffffffffff16837f2f8788117e7eff1d82e926ec794901d17c78024a50270940304540a733656f0d60405160405180910390a45b5050565b60006001600084815260200190815260200160002060000160008373ffffffffffffffffffffffffffffffffffffffff1673ffffffffffffffffffffffffffffffffffffffff16815260200190815260200160002060009054906101000a900460ff16905092915050565b6131d080620002856000396000f3fe608060405234801561001057600080fd5b50600436106101575760003560e01c806391d14854116100c3578063de80d5401161007c578063de80d540146103ac578063dea047ff146103e1578063ec26019d14610411578063ec87621c14610441578063ed5be49f1461045f578063f2fde38b1461049457610157565b806391d14854146102da578063a217fddf1461030a578063a7638b0d14610328578063ac18de4314610344578063bc63af5d14610360578063d547741f1461039057610157565b806337e90b151161011557806337e90b151461024057806338e93ddd1461025c578063509bb540146102785780636fab586014610296578063715018a6146102b25780638da5cb5b146102bc57610157565b806283a8741461015c57806301ffc9a71461018c578063248a9ca3146101bc5780632b2da97e146101ec5780632f2ff15d1461020857806336568abe14610224575b600080fd5b61017660048036038101906101719190612386565b6104b0565b60405161018391906123d5565b60405180910390f35b6101a660048036038101906101a19190612448565b6104e1565b6040516101b39190612490565b60405180910390f35b6101d660048036038101906101d191906124e1565b61055b565b6040516101e3919061251d565b60405180910390f35b61020660048036038101906102019190612538565b61057b565b005b610222600480360381019061021d9190612565565b6105b0565b005b61023e60048036038101906102399190612565565b6105d1565b005b61025a600480360381019061025591906125a5565b610654565b005b610276600480360381019061027191906125f8565b610be2565b005b610280610e55565b60405161028d91906127f7565b60405180910390f35b6102b060048036038101906102ab91906125f8565b610fc1565b005b6102ba611234565b005b6102c4611248565b6040516102d19190612828565b60405180910390f35b6102f460048036038101906102ef9190612565565b611271565b6040516103019190612490565b60405180910390f35b6103126112dc565b60405161031f919061251d565b60405180910390f35b610342600480360381019061033d9190612843565b6112e3565b005b61035e60048036038101906103599190612538565b611469565b005b61037a60048036038101906103759190612538565b61149e565b60405161038791906127f7565b60405180910390f35b6103aa60048036038101906103a59190612565565b6117d9565b005b6103c660048036038101906103c19190612843565b6117fa565b6040516103d89695949392919061287f565b60405180910390f35b6103fb60048036038101906103f69190612843565b611883565b604051610408919061295b565b60405180910390f35b61042b60048036038101906104269190612538565b611a2b565b6040516104389190612490565b60405180910390f35b610449611a66565b604051610456919061251d565b60405180910390f35b61047960048036038101906104749190612843565b611a8a565b60405161048b9695949392919061287f565b60405180910390f35b6104ae60048036038101906104a99190612538565b611b23565b005b600360205281600052604060002081815481106104cc57600080fd5b90600052602060002001600091509150505481565b60007f7965db0b000000000000000000000000000000000000000000000000000000007bffffffffffffffffffffffffffffffffffffffffffffffffffffffff1916827bffffffffffffffffffffffffffffffffffffffffffffffffffffffff19161480610554575061055382611ba6565b5b9050919050565b600060016000838152602001908152602001600020600101549050919050565b610583611c10565b6105ad7f241ecf16d79d0f8dbfb92cbc07fe17840425976cf0667f022fe9877caa831b08826105b0565b50565b6105b98261055b565b6105c281611c8e565b6105cc8383611ca2565b505050565b6105d9611d82565b73ffffffffffffffffffffffffffffffffffffffff168173ffffffffffffffffffffffffffffffffffffffff1614610646576040517f08c379a000000000000000000000000000000000000000000000000000000000815260040161063d906129f9565b60405180910390fd5b6106508282611d8a565b5050565b600115156106827f241ecf16d79d0f8dbfb92cbc07fe17840425976cf0667f022fe9877caa831b0833611271565b1515146106c4576040517f08c379a00000000000000000000000000000000000000000000000000000000081526004016106bb90612a65565b60405180910390fd5b6040518060c001604052808481526020018373ffffffffffffffffffffffffffffffffffffffff1681526020018273ffffffffffffffffffffffffffffffffffffffff16815260200160008152602001600081526020016000600481111561072f5761072e612682565b5b815250600260008581526020019081526020016000206000820151816000015560208201518160010160006101000a81548173ffffffffffffffffffffffffffffffffffffffff021916908373ffffffffffffffffffffffffffffffffffffffff16021790555060408201518160020160006101000a81548173ffffffffffffffffffffffffffffffffffffffff021916908373ffffffffffffffffffffffffffffffffffffffff160217905550606082015181600301556080820151816004015560a08201518160050160006101000a81548160ff0219169083600481111561081c5761081b612682565b5b02179055509050506004600260008581526020019081526020016000209080600181540180825580915050600190039060005260206000209060060201600090919091909150600082015481600001556001820160009054906101000a900473ffffffffffffffffffffffffffffffffffffffff168160010160006101000a81548173ffffffffffffffffffffffffffffffffffffffff021916908373ffffffffffffffffffffffffffffffffffffffff1602179055506002820160009054906101000a900473ffffffffffffffffffffffffffffffffffffffff168160020160006101000a81548173ffffffffffffffffffffffffffffffffffffffff021916908373ffffffffffffffffffffffffffffffffffffffff16021790555060038201548160030155600482015481600401556005820160009054906101000a900460ff168160050160006101000a81548160ff0219169083600481111561098657610985612682565b5b02179055505050610a24600360008473ffffffffffffffffffffffffffffffffffffffff1673ffffffffffffffffffffffffffffffffffffffff168152602001908152602001600020805480602002602001604051908101604052809291908181526020018280548015610a1957602002820191906000526020600020905b815481526020019060010190808311610a05575b505050505084611e6c565b610a8f57600360008373ffffffffffffffffffffffffffffffffffffffff1673ffffffffffffffffffffffffffffffffffffffff1681526020019081526020016000208390806001815401808255809150506001900390600052602060002001600090919091909150555b610b26600360008373ffffffffffffffffffffffffffffffffffffffff1673ffffffffffffffffffffffffffffffffffffffff168152602001908152602001600020805480602002602001604051908101604052809291908181526020018280548015610b1b57602002820191906000526020600020905b815481526020019060010190808311610b07575b505050505084611e6c565b610b9157600360008273ffffffffffffffffffffffffffffffffffffffff1673ffffffffffffffffffffffffffffffffffffffff1681526020019081526020016000208390806001815401808255809150506001900390600052602060002001600090919091909150555b3373ffffffffffffffffffffffffffffffffffffffff167f9c2934f9680d4d02ad23be89256671274853d7f537294a85bcfefdd94f517d0b604051610bd590612ad1565b60405180910390a2505050565b60011515610c107f241ecf16d79d0f8dbfb92cbc07fe17840425976cf0667f022fe9877caa831b0833611271565b151514610c52576040517f08c379a0000000000000000000000000000000000000000000000000000000008152600401610c4990612a65565b60405180910390fd5b60006002600084815260200190815260200160002090503373ffffffffffffffffffffffffffffffffffffffff168160010160009054906101000a900473ffffffffffffffffffffffffffffffffffffffff1673ffffffffffffffffffffffffffffffffffffffff16148015610d1757508173ffffffffffffffffffffffffffffffffffffffff168160020160009054906101000a900473ffffffffffffffffffffffffffffffffffffffff1673ffffffffffffffffffffffffffffffffffffffff16145b610d56576040517f08c379a0000000000000000000000000000000000000000000000000000000008152600401610d4d90612b3d565b60405180910390fd5b60006004811115610d6a57610d69612682565b5b8160050160009054906101000a900460ff166004811115610d8e57610d8d612682565b5b14610dce576040517f08c379a0000000000000000000000000000000000000000000000000000000008152600401610dc590612ba9565b60405180910390fd5b60018160050160006101000a81548160ff02191690836004811115610df657610df5612682565b5b02179055504281600301819055503373ffffffffffffffffffffffffffffffffffffffff167f40963be176af5007d2701a7e6ef198a56c8dcf25babf979f8d625e642b476ab7604051610e4890612c15565b60405180910390a2505050565b6060610e5f611c10565b6004805480602002602001604051908101604052809291908181526020016000905b82821015610fb857838290600052602060002090600602016040518060c0016040529081600082015481526020016001820160009054906101000a900473ffffffffffffffffffffffffffffffffffffffff1673ffffffffffffffffffffffffffffffffffffffff1673ffffffffffffffffffffffffffffffffffffffff1681526020016002820160009054906101000a900473ffffffffffffffffffffffffffffffffffffffff1673ffffffffffffffffffffffffffffffffffffffff1673ffffffffffffffffffffffffffffffffffffffff16815260200160038201548152602001600482015481526020016005820160009054906101000a900460ff166004811115610f9357610f92612682565b5b6004811115610fa557610fa4612682565b5b8152505081526020019060010190610e81565b50505050905090565b60011515610fef7f241ecf16d79d0f8dbfb92cbc07fe17840425976cf0667f022fe9877caa831b0833611271565b151514611031576040517f08c379a000000000000000000000000000000000000000000000000000000000815260040161102890612a65565b60405180910390fd5b60006002600084815260200190815260200160002090508173ffffffffffffffffffffffffffffffffffffffff168160010160009054906101000a900473ffffffffffffffffffffffffffffffffffffffff1673ffffffffffffffffffffffffffffffffffffffff161480156110f657503373ffffffffffffffffffffffffffffffffffffffff168160020160009054906101000a900473ffffffffffffffffffffffffffffffffffffffff1673ffffffffffffffffffffffffffffffffffffffff16145b611135576040517f08c379a000000000000000000000000000000000000000000000000000000000815260040161112c90612b3d565b60405180910390fd5b6001600481111561114957611148612682565b5b8160050160009054906101000a900460ff16600481111561116d5761116c612682565b5b146111ad576040517f08c379a00000000000000000000000000000000000000000000000000000000081526004016111a490612ba9565b60405180910390fd5b60028160050160006101000a81548160ff021916908360048111156111d5576111d4612682565b5b02179055504281600401819055503373ffffffffffffffffffffffffffffffffffffffff167fffcb97712f3afe816204a7c9a42c779837f4775b24d393c160d9fb92c0fa54f860405161122790612c81565b60405180910390a2505050565b61123c611c10565b6112466000611ec7565b565b60008060009054906101000a900473ffffffffffffffffffffffffffffffffffffffff16905090565b60006001600084815260200190815260200160002060000160008373ffffffffffffffffffffffffffffffffffffffff1673ffffffffffffffffffffffffffffffffffffffff16815260200190815260200160002060009054906101000a900460ff16905092915050565b6000801b81565b600115156113117f241ecf16d79d0f8dbfb92cbc07fe17840425976cf0667f022fe9877caa831b0833611271565b151514611353576040517f08c379a000000000000000000000000000000000000000000000000000000000815260040161134a90612a65565b60405180910390fd5b60006002600083815260200190815260200160002090506001600481111561137e5761137d612682565b5b8160050160009054906101000a900460ff1660048111156113a2576113a1612682565b5b14806113e35750600260048111156113bd576113bc612682565b5b8160050160009054906101000a900460ff1660048111156113e1576113e0612682565b5b145b6113ec57600080fd5b60048160050160006101000a81548160ff0219169083600481111561141457611413612682565b5b02179055503373ffffffffffffffffffffffffffffffffffffffff167f572f38326c0f991573fca9ec611774793ead7d7ad10d3250a0db6fb12aa78d3260405161145d90612ced565b60405180910390a25050565b611471611c10565b61149b7f241ecf16d79d0f8dbfb92cbc07fe17840425976cf0667f022fe9877caa831b08826117d9565b50565b60606000600360008473ffffffffffffffffffffffffffffffffffffffff1673ffffffffffffffffffffffffffffffffffffffff16815260200190815260200160002080548060200260200160405190810160405280929190818152602001828054801561152b57602002820191906000526020600020905b815481526020019060010190808311611517575b505050505090506000815167ffffffffffffffff81111561154f5761154e612d0d565b5b60405190808252806020026020018201604052801561158857816020015b611575612279565b81526020019060019003908161156d5790505b5090506000805b83518110156117cd576000600260008684815181106115b1576115b0612d3c565b5b6020026020010151815260200190815260200160002090508673ffffffffffffffffffffffffffffffffffffffff168160010160009054906101000a900473ffffffffffffffffffffffffffffffffffffffff1673ffffffffffffffffffffffffffffffffffffffff16148061167657508673ffffffffffffffffffffffffffffffffffffffff168160020160009054906101000a900473ffffffffffffffffffffffffffffffffffffffff1673ffffffffffffffffffffffffffffffffffffffff16145b156117b957806040518060c0016040529081600082015481526020016001820160009054906101000a900473ffffffffffffffffffffffffffffffffffffffff1673ffffffffffffffffffffffffffffffffffffffff1673ffffffffffffffffffffffffffffffffffffffff1681526020016002820160009054906101000a900473ffffffffffffffffffffffffffffffffffffffff1673ffffffffffffffffffffffffffffffffffffffff1673ffffffffffffffffffffffffffffffffffffffff16815260200160038201548152602001600482015481526020016005820160009054906101000a900460ff16600481111561177657611775612682565b5b600481111561178857611787612682565b5b8152505084848151811061179f5761179e612d3c565b5b602002602001018190525082806117b590612d9a565b9350505b5080806117c590612d9a565b91505061158f565b50819350505050919050565b6117e28261055b565b6117eb81611c8e565b6117f58383611d8a565b505050565b60026020528060005260406000206000915090508060000154908060010160009054906101000a900473ffffffffffffffffffffffffffffffffffffffff16908060020160009054906101000a900473ffffffffffffffffffffffffffffffffffffffff16908060030154908060040154908060050160009054906101000a900460ff16905086565b61188b612279565b600115156118b97f241ecf16d79d0f8dbfb92cbc07fe17840425976cf0667f022fe9877caa831b0833611271565b1515146118fb576040517f08c379a00000000000000000000000000000000000000000000000000000000081526004016118f290612a65565b60405180910390fd5b6000600260008481526020019081526020016000209050806040518060c0016040529081600082015481526020016001820160009054906101000a900473ffffffffffffffffffffffffffffffffffffffff1673ffffffffffffffffffffffffffffffffffffffff1673ffffffffffffffffffffffffffffffffffffffff1681526020016002820160009054906101000a900473ffffffffffffffffffffffffffffffffffffffff1673ffffffffffffffffffffffffffffffffffffffff1673ffffffffffffffffffffffffffffffffffffffff16815260200160038201548152602001600482015481526020016005820160009054906101000a900460ff166004811115611a0d57611a0c612682565b5b6004811115611a1f57611a1e612682565b5b81525050915050919050565b6000611a35611c10565b611a5f7f241ecf16d79d0f8dbfb92cbc07fe17840425976cf0667f022fe9877caa831b0883611271565b9050919050565b7f241ecf16d79d0f8dbfb92cbc07fe17840425976cf0667f022fe9877caa831b0881565b60048181548110611a9a57600080fd5b90600052602060002090600602016000915090508060000154908060010160009054906101000a900473ffffffffffffffffffffffffffffffffffffffff16908060020160009054906101000a900473ffffffffffffffffffffffffffffffffffffffff16908060030154908060040154908060050160009054906101000a900460ff16905086565b611b2b611c10565b600073ffffffffffffffffffffffffffffffffffffffff168173ffffffffffffffffffffffffffffffffffffffff1603611b9a576040517f08c379a0000000000000000000000000000000000000000000000000000000008152600401611b9190612e54565b60405180910390fd5b611ba381611ec7565b50565b60007f01ffc9a7000000000000000000000000000000000000000000000000000000007bffffffffffffffffffffffffffffffffffffffffffffffffffffffff1916827bffffffffffffffffffffffffffffffffffffffffffffffffffffffff1916149050919050565b611c18611d82565b73ffffffffffffffffffffffffffffffffffffffff16611c36611248565b73ffffffffffffffffffffffffffffffffffffffff1614611c8c576040517f08c379a0000000000000000000000000000000000000000000000000000000008152600401611c8390612ec0565b60405180910390fd5b565b611c9f81611c9a611d82565b611f8b565b50565b611cac8282611271565b611d7e57600180600084815260200190815260200160002060000160008373ffffffffffffffffffffffffffffffffffffffff1673ffffffffffffffffffffffffffffffffffffffff16815260200190815260200160002060006101000a81548160ff021916908315150217905550611d23611d82565b73ffffffffffffffffffffffffffffffffffffffff168173ffffffffffffffffffffffffffffffffffffffff16837f2f8788117e7eff1d82e926ec794901d17c78024a50270940304540a733656f0d60405160405180910390a45b5050565b600033905090565b611d948282611271565b15611e685760006001600084815260200190815260200160002060000160008373ffffffffffffffffffffffffffffffffffffffff1673ffffffffffffffffffffffffffffffffffffffff16815260200190815260200160002060006101000a81548160ff021916908315150217905550611e0d611d82565b73ffffffffffffffffffffffffffffffffffffffff168173ffffffffffffffffffffffffffffffffffffffff16837ff6391f5c32d9c69d2a47ea670b442974b53935d1edc7fd64eb21e047a839171b60405160405180910390a45b5050565b600080600090505b8351811015611ebb5782848281518110611e9157611e90612d3c565b5b602002602001015103611ea8576001915050611ec1565b8080611eb390612d9a565b915050611e74565b50600090505b92915050565b60008060009054906101000a900473ffffffffffffffffffffffffffffffffffffffff169050816000806101000a81548173ffffffffffffffffffffffffffffffffffffffff021916908373ffffffffffffffffffffffffffffffffffffffff1602179055508173ffffffffffffffffffffffffffffffffffffffff168173ffffffffffffffffffffffffffffffffffffffff167f8be0079c531659141344cd1fd0a4f28419497f9722a3daafe3b4186f6b6457e060405160405180910390a35050565b611f958282611271565b61200c57611fa281612010565b611fb08360001c602061203d565b604051602001611fc1929190612fe9565b6040516020818303038152906040526040517f08c379a0000000000000000000000000000000000000000000000000000000008152600401612003919061306d565b60405180910390fd5b5050565b60606120368273ffffffffffffffffffffffffffffffffffffffff16601460ff1661203d565b9050919050565b606060006002836002612050919061308f565b61205a91906130d1565b67ffffffffffffffff81111561207357612072612d0d565b5b6040519080825280601f01601f1916602001820160405280156120a55781602001600182028036833780820191505090505b5090507f3000000000000000000000000000000000000000000000000000000000000000816000815181106120dd576120dc612d3c565b5b60200101907effffffffffffffffffffffffffffffffffffffffffffffffffffffffffffff1916908160001a9053507f78000000000000000000000000000000000000000000000000000000000000008160018151811061214157612140612d3c565b5b60200101907effffffffffffffffffffffffffffffffffffffffffffffffffffffffffffff1916908160001a90535060006001846002612181919061308f565b61218b91906130d1565b90505b600181111561222b577f3031323334353637383961626364656600000000000000000000000000000000600f8616601081106121cd576121cc612d3c565b5b1a60f81b8282815181106121e4576121e3612d3c565b5b60200101907effffffffffffffffffffffffffffffffffffffffffffffffffffffffffffff1916908160001a905350600485901c94508061222490613105565b905061218e565b506000841461226f576040517f08c379a00000000000000000000000000000000000000000000000000000000081526004016122669061317a565b60405180910390fd5b8091505092915050565b6040518060c0016040528060008152602001600073ffffffffffffffffffffffffffffffffffffffff168152602001600073ffffffffffffffffffffffffffffffffffffffff1681526020016000815260200160008152602001600060048111156122e7576122e6612682565b5b81525090565b600080fd5b600073ffffffffffffffffffffffffffffffffffffffff82169050919050565b600061231d826122f2565b9050919050565b61232d81612312565b811461233857600080fd5b50565b60008135905061234a81612324565b92915050565b6000819050919050565b61236381612350565b811461236e57600080fd5b50565b6000813590506123808161235a565b92915050565b6000806040838503121561239d5761239c6122ed565b5b60006123ab8582860161233b565b92505060206123bc85828601612371565b9150509250929050565b6123cf81612350565b82525050565b60006020820190506123ea60008301846123c6565b92915050565b60007fffffffff0000000000000000000000000000000000000000000000000000000082169050919050565b612425816123f0565b811461243057600080fd5b50565b6000813590506124428161241c565b92915050565b60006020828403121561245e5761245d6122ed565b5b600061246c84828501612433565b91505092915050565b60008115159050919050565b61248a81612475565b82525050565b60006020820190506124a56000830184612481565b92915050565b6000819050919050565b6124be816124ab565b81146124c957600080fd5b50565b6000813590506124db816124b5565b92915050565b6000602082840312156124f7576124f66122ed565b5b6000612505848285016124cc565b91505092915050565b612517816124ab565b82525050565b6000602082019050612532600083018461250e565b92915050565b60006020828403121561254e5761254d6122ed565b5b600061255c8482850161233b565b91505092915050565b6000806040838503121561257c5761257b6122ed565b5b600061258a858286016124cc565b925050602061259b8582860161233b565b9150509250929050565b6000806000606084860312156125be576125bd6122ed565b5b60006125cc86828701612371565b93505060206125dd8682870161233b565b92505060406125ee8682870161233b565b9150509250925092565b6000806040838503121561260f5761260e6122ed565b5b600061261d85828601612371565b925050602061262e8582860161233b565b9150509250929050565b600081519050919050565b600082825260208201905092915050565b6000819050602082019050919050565b61266d81612350565b82525050565b61267c81612312565b82525050565b7f4e487b7100000000000000000000000000000000000000000000000000000000600052602160045260246000fd5b600581106126c2576126c1612682565b5b50565b60008190506126d3826126b1565b919050565b60006126e3826126c5565b9050919050565b6126f3816126d8565b82525050565b60c08201600082015161270f6000850182612664565b5060208201516127226020850182612673565b5060408201516127356040850182612673565b5060608201516127486060850182612664565b50608082015161275b6080850182612664565b5060a082015161276e60a08501826126ea565b50505050565b600061278083836126f9565b60c08301905092915050565b6000602082019050919050565b60006127a482612638565b6127ae8185612643565b93506127b983612654565b8060005b838110156127ea5781516127d18882612774565b97506127dc8361278c565b9250506001810190506127bd565b5085935050505092915050565b600060208201905081810360008301526128118184612799565b905092915050565b61282281612312565b82525050565b600060208201905061283d6000830184612819565b92915050565b600060208284031215612859576128586122ed565b5b600061286784828501612371565b91505092915050565b612879816126d8565b82525050565b600060c08201905061289460008301896123c6565b6128a16020830188612819565b6128ae6040830187612819565b6128bb60608301866123c6565b6128c860808301856123c6565b6128d560a0830184612870565b979650505050505050565b60c0820160008201516128f66000850182612664565b5060208201516129096020850182612673565b50604082015161291c6040850182612673565b50606082015161292f6060850182612664565b5060808201516129426080850182612664565b5060a082015161295560a08501826126ea565b50505050565b600060c08201905061297060008301846128e0565b92915050565b600082825260208201905092915050565b7f416363657373436f6e74726f6c3a2063616e206f6e6c792072656e6f756e636560008201527f20726f6c657320666f722073656c660000000000000000000000000000000000602082015250565b60006129e3602f83612976565b91506129ee82612987565b604082019050919050565b60006020820190508181036000830152612a12816129d6565b9050919050565b7f75736572206973206e6f742061206d616e616765720000000000000000000000600082015250565b6000612a4f601583612976565b9150612a5a82612a19565b602082019050919050565b60006020820190508181036000830152612a7e81612a42565b9050919050565b7f5452414e53495420435245415445440000000000000000000000000000000000600082015250565b6000612abb600f83612976565b9150612ac682612a85565b602082019050919050565b60006020820190508181036000830152612aea81612aae565b9050919050565b7f496e76616c69642073656e646572206f72207265636569766572000000000000600082015250565b6000612b27601a83612976565b9150612b3282612af1565b602082019050919050565b60006020820190508181036000830152612b5681612b1a565b9050919050565b7f496e76616c6964207472616e7369742073746174757300000000000000000000600082015250565b6000612b93601683612976565b9150612b9e82612b5d565b602082019050919050565b60006020820190508181036000830152612bc281612b86565b9050919050565b7f5452414e53495420535441525445440000000000000000000000000000000000600082015250565b6000612bff600f83612976565b9150612c0a82612bc9565b602082019050919050565b60006020820190508181036000830152612c2e81612bf2565b9050919050565b7f5452414e53495420524543454956454400000000000000000000000000000000600082015250565b6000612c6b601083612976565b9150612c7682612c35565b602082019050919050565b60006020820190508181036000830152612c9a81612c5e565b9050919050565b7f54414d5045524544000000000000000000000000000000000000000000000000600082015250565b6000612cd7600883612976565b9150612ce282612ca1565b602082019050919050565b60006020820190508181036000830152612d0681612cca565b9050919050565b7f4e487b7100000000000000000000000000000000000000000000000000000000600052604160045260246000fd5b7f4e487b7100000000000000000000000000000000000000000000000000000000600052603260045260246000fd5b7f4e487b7100000000000000000000000000000000000000000000000000000000600052601160045260246000fd5b6000612da582612350565b91507fffffffffffffffffffffffffffffffffffffffffffffffffffffffffffffffff8203612dd757612dd6612d6b565b5b600182019050919050565b7f4f776e61626c653a206e6577206f776e657220697320746865207a65726f206160008201527f6464726573730000000000000000000000000000000000000000000000000000602082015250565b6000612e3e602683612976565b9150612e4982612de2565b604082019050919050565b60006020820190508181036000830152612e6d81612e31565b9050919050565b7f4f776e61626c653a2063616c6c6572206973206e6f7420746865206f776e6572600082015250565b6000612eaa602083612976565b9150612eb582612e74565b602082019050919050565b60006020820190508181036000830152612ed981612e9d565b9050919050565b600081905092915050565b7f416363657373436f6e74726f6c3a206163636f756e7420000000000000000000600082015250565b6000612f21601783612ee0565b9150612f2c82612eeb565b601782019050919050565b600081519050919050565b60005b83811015612f60578082015181840152602081019050612f45565b60008484015250505050565b6000612f7782612f37565b612f818185612ee0565b9350612f91818560208601612f42565b80840191505092915050565b7f206973206d697373696e6720726f6c6520000000000000000000000000000000600082015250565b6000612fd3601183612ee0565b9150612fde82612f9d565b601182019050919050565b6000612ff482612f14565b91506130008285612f6c565b915061300b82612fc6565b91506130178284612f6c565b91508190509392505050565b6000601f19601f8301169050919050565b600061303f82612f37565b6130498185612976565b9350613059818560208601612f42565b61306281613023565b840191505092915050565b600060208201905081810360008301526130878184613034565b905092915050565b600061309a82612350565b91506130a583612350565b92508282026130b381612350565b915082820484148315176130ca576130c9612d6b565b5b5092915050565b60006130dc82612350565b91506130e783612350565b92508282019050808211156130ff576130fe612d6b565b5b92915050565b600061311082612350565b91506000820361312357613122612d6b565b5b600182039050919050565b7f537472696e67733a20686578206c656e67746820696e73756666696369656e74600082015250565b6000613164602083612976565b915061316f8261312e565b602082019050919050565b6000602082019050818103600083015261319381613157565b905091905056fea26469706673582212209be8c8a1fc8ecaceaf84a262ba3a16af399df5ffee94432c5c9cd86e86c4411c64736f6c63430008130033",
  "immutableReferences": {},
  "source": "// SPDX-License-Identifier: MIT\r\npragma solidity 0.8.19;\r\n\r\nimport \"@openzeppelin/contracts/access/AccessControl.sol\";\r\nimport \"@openzeppelin/contracts/access/Ownable.sol\";\r\n\r\ncontract Transit is Ownable, AccessControl {\r\n    bytes32 public constant MANAGER_ROLE = keccak256(\"MANAGER_ROLE\");\r\n\r\n    constructor() Ownable() {\r\n        _grantRole(DEFAULT_ADMIN_ROLE, msg.sender);\r\n    }\r\n    enum transitStatus {\r\n        PENDING,\r\n        IN_TRANSIT,\r\n        RECEIVED,\r\n        RECEIVED_FINAL,\r\n        TAMPERED\r\n    }\r\n\r\n    event Tampered(address indexed sender, string message);\r\n    event TransitCreated(address indexed sender, string message);\r\n    event TransitStarted(address indexed sender,string message);\r\n    event TransitReceived(address indexed sender, string message);\r\n\r\n    struct Details {\r\n        uint transitId; // New field to store the transit ID\r\n        address sender;\r\n        address receiver;\r\n        uint pickupTime;\r\n        uint deliveryTime;\r\n        transitStatus status;\r\n    }\r\n\r\n    mapping(uint => Details) public transits;\r\n    mapping(address => uint[]) public transitIdsByAddress;\r\n    Details[] public allTransits;\r\n\r\n    modifier onlyManager {\r\n        require(hasRole(MANAGER_ROLE, msg.sender) == true, 'user is not a manager');\r\n        _;\r\n    }\r\n    function registerManager(address manager) public onlyOwner {\r\n        grantRole(MANAGER_ROLE, manager);\r\n    }\r\n\r\n    function removeManager(address manager) public onlyOwner {\r\n        revokeRole(MANAGER_ROLE, manager);\r\n    }\r\n\r\n    function checkManager(\r\n        address manager\r\n    ) public view onlyOwner returns (bool) {\r\n        return hasRole(MANAGER_ROLE, manager);\r\n    }\r\n\r\n    function createTransit(\r\n        uint _transitId,\r\n        address _sender,\r\n        address _receiver\r\n    ) external onlyManager {\r\n        transits[_transitId] = Details(\r\n            _transitId,\r\n            _sender,\r\n            _receiver,\r\n            0,\r\n            0,\r\n            transitStatus.PENDING\r\n        );\r\n        allTransits.push(transits[_transitId]);\r\n\r\n        if (!isTransitIdExists(transitIdsByAddress[_sender], _transitId)) {\r\n            transitIdsByAddress[_sender].push(_transitId);\r\n        }\r\n\r\n        if (!isTransitIdExists(transitIdsByAddress[_receiver], _transitId)) {\r\n            transitIdsByAddress[_receiver].push(_transitId);\r\n        }\r\n        emit TransitCreated(msg.sender, \"TRANSIT CREATED\");\r\n    }\r\n\r\n    function startTransit(uint _transitId, address _receiver) external onlyManager {\r\n        Details storage detail = transits[_transitId];\r\n        require(\r\n            detail.sender == msg.sender && detail.receiver == _receiver,\r\n            \"Invalid sender or receiver\"\r\n        );\r\n        require(\r\n            detail.status == transitStatus.PENDING,\r\n            \"Invalid transit status\"\r\n        );\r\n        detail.status = transitStatus.IN_TRANSIT;\r\n        detail.pickupTime = block.timestamp;\r\n        emit TransitStarted(msg.sender, \"TRANSIT STARTED\");\r\n    }\r\n\r\n    function receiveTransit(uint _transitId, address _sender) external onlyManager {\r\n        Details storage detail = transits[_transitId];\r\n        require(\r\n            detail.sender == _sender && detail.receiver == msg.sender,\r\n            \"Invalid sender or receiver\"\r\n        );\r\n        require(\r\n            detail.status == transitStatus.IN_TRANSIT,\r\n            \"Invalid transit status\"\r\n        );\r\n        detail.status = transitStatus.RECEIVED;\r\n        detail.deliveryTime = block.timestamp;\r\n        emit TransitReceived(msg.sender, \"TRANSIT RECEIVED\");\r\n    }\r\n\r\n    function tempTampered(uint _transitID) external onlyManager{\r\n        Details storage detail = transits[_transitID];\r\n        require(\r\n            detail.status == transitStatus.IN_TRANSIT ||\r\n                detail.status == transitStatus.RECEIVED\r\n        );\r\n        detail.status = transitStatus.TAMPERED;\r\n        emit Tampered(msg.sender, \"TAMPERED\");\r\n    }\r\n\r\n    function getTransitsByAddress(\r\n        address _address\r\n    ) public view returns (Details[] memory) {\r\n        uint[] memory transitIds = transitIdsByAddress[_address];\r\n        Details[] memory result = new Details[](transitIds.length);\r\n        uint resultIndex = 0;\r\n\r\n        for (uint i = 0; i < transitIds.length; i++) {\r\n            Details storage detail = transits[transitIds[i]];\r\n            if (detail.sender == _address || detail.receiver == _address) {\r\n                result[resultIndex] = detail;\r\n                resultIndex++;\r\n            }\r\n        }\r\n\r\n        return result;\r\n    }\r\n\r\n    function isTransitIdExists(\r\n        uint[] memory ids,\r\n        uint id\r\n    ) internal pure returns (bool) {\r\n        for (uint i = 0; i < ids.length; i++) {\r\n            if (ids[i] == id) {\r\n                return true;\r\n            }\r\n        }\r\n        return false;\r\n    }\r\n\r\n\r\n    function getTransitbyID(\r\n        uint _transitID\r\n    ) public view onlyManager returns (Details memory) {\r\n        Details storage detail = transits[_transitID];\r\n        return detail;\r\n    }\r\n\r\n    function getAllTransits() public view onlyOwner returns (Details[] memory) {\r\n        return allTransits;\r\n    }\r\n}\r\n",
  "sourcePath": "C:\\Users\\Hp\\Projects\\blockchain\\AccessControl\\contracts\\access.sol",
  "compiler": {
    "name": "solc",
    "version": "0.8.19+commit.7dd6d404.Emscripten.clang"
  },
  "schemaVersion": "3.4.16",
  "updatedAt": "2024-05-12T07:19:50.832Z",
  "networkType": "ethereum",
  "devdoc": {
    "events": {
      "RoleAdminChanged(bytes32,bytes32,bytes32)": {
        "details": "Emitted when `newAdminRole` is set as ``role``'s admin role, replacing `previousAdminRole` `DEFAULT_ADMIN_ROLE` is the starting admin for all roles, despite {RoleAdminChanged} not being emitted signaling this. _Available since v3.1._"
      },
      "RoleGranted(bytes32,address,address)": {
        "details": "Emitted when `account` is granted `role`. `sender` is the account that originated the contract call, an admin role bearer except when using {AccessControl-_setupRole}."
      },
      "RoleRevoked(bytes32,address,address)": {
        "details": "Emitted when `account` is revoked `role`. `sender` is the account that originated the contract call:   - if using `revokeRole`, it is the admin role bearer   - if using `renounceRole`, it is the role bearer (i.e. `account`)"
      }
    },
    "kind": "dev",
    "methods": {
      "getRoleAdmin(bytes32)": {
        "details": "Returns the admin role that controls `role`. See {grantRole} and {revokeRole}. To change a role's admin, use {_setRoleAdmin}."
      },
      "grantRole(bytes32,address)": {
        "details": "Grants `role` to `account`. If `account` had not been already granted `role`, emits a {RoleGranted} event. Requirements: - the caller must have ``role``'s admin role. May emit a {RoleGranted} event."
      },
      "hasRole(bytes32,address)": {
        "details": "Returns `true` if `account` has been granted `role`."
      },
      "owner()": {
        "details": "Returns the address of the current owner."
      },
      "renounceOwnership()": {
        "details": "Leaves the contract without owner. It will not be possible to call `onlyOwner` functions. Can only be called by the current owner. NOTE: Renouncing ownership will leave the contract without an owner, thereby disabling any functionality that is only available to the owner."
      },
      "renounceRole(bytes32,address)": {
        "details": "Revokes `role` from the calling account. Roles are often managed via {grantRole} and {revokeRole}: this function's purpose is to provide a mechanism for accounts to lose their privileges if they are compromised (such as when a trusted device is misplaced). If the calling account had been revoked `role`, emits a {RoleRevoked} event. Requirements: - the caller must be `account`. May emit a {RoleRevoked} event."
      },
      "revokeRole(bytes32,address)": {
        "details": "Revokes `role` from `account`. If `account` had been granted `role`, emits a {RoleRevoked} event. Requirements: - the caller must have ``role``'s admin role. May emit a {RoleRevoked} event."
      },
      "supportsInterface(bytes4)": {
        "details": "See {IERC165-supportsInterface}."
      },
      "transferOwnership(address)": {
        "details": "Transfers ownership of the contract to a new account (`newOwner`). Can only be called by the current owner."
      }
    },
    "version": 1
  },
  "userdoc": {
    "kind": "user",
    "methods": {},
    "version": 1
  }
}