{
  "contractName": "Transit",
  "abi": [
    {
      "anonymous": false,
      "inputs": [
        {
          "indexed": true,
          "internalType": "address",
          "name": "sender",
          "type": "address"
        },
        {
          "indexed": false,
          "internalType": "string",
          "name": "message",
          "type": "string"
        }
      ],
      "name": "Tampered",
      "type": "event"
    },
    {
      "inputs": [
        {
          "internalType": "address",
          "name": "",
          "type": "address"
        },
        {
          "internalType": "uint256",
          "name": "",
          "type": "uint256"
        }
      ],
      "name": "transitIdsByAddress",
      "outputs": [
        {
          "internalType": "uint256",
          "name": "",
          "type": "uint256"
        }
      ],
      "stateMutability": "view",
      "type": "function",
      "constant": true
    },
    {
      "inputs": [
        {
          "internalType": "uint256",
          "name": "",
          "type": "uint256"
        }
      ],
      "name": "transits",
      "outputs": [
        {
          "internalType": "address",
          "name": "sender",
          "type": "address"
        },
        {
          "internalType": "address",
          "name": "receiver",
          "type": "address"
        },
        {
          "internalType": "uint256",
          "name": "pickupTime",
          "type": "uint256"
        },
        {
          "internalType": "uint256",
          "name": "deliveryTime",
          "type": "uint256"
        },
        {
          "internalType": "enum Transit.transitStatus",
          "name": "status",
          "type": "uint8"
        }
      ],
      "stateMutability": "view",
      "type": "function",
      "constant": true
    },
    {
      "inputs": [
        {
          "internalType": "uint256",
          "name": "_transitId",
          "type": "uint256"
        },
        {
          "internalType": "address",
          "name": "_sender",
          "type": "address"
        },
        {
          "internalType": "address",
          "name": "_receiver",
          "type": "address"
        }
      ],
      "name": "createTransit",
      "outputs": [],
      "stateMutability": "nonpayable",
      "type": "function"
    },
    {
      "inputs": [
        {
          "internalType": "uint256",
          "name": "_transitId",
          "type": "uint256"
        },
        {
          "internalType": "address",
          "name": "_receiver",
          "type": "address"
        }
      ],
      "name": "startTransit",
      "outputs": [],
      "stateMutability": "nonpayable",
      "type": "function"
    },
    {
      "inputs": [
        {
          "internalType": "uint256",
          "name": "_transitId",
          "type": "uint256"
        },
        {
          "internalType": "address",
          "name": "_sender",
          "type": "address"
        }
      ],
      "name": "receiveTransit",
      "outputs": [],
      "stateMutability": "nonpayable",
      "type": "function"
    },
    {
      "inputs": [
        {
          "internalType": "address",
          "name": "_address",
          "type": "address"
        }
      ],
      "name": "getTransitsByAddress",
      "outputs": [
        {
          "components": [
            {
              "internalType": "address",
              "name": "sender",
              "type": "address"
            },
            {
              "internalType": "address",
              "name": "receiver",
              "type": "address"
            },
            {
              "internalType": "uint256",
              "name": "pickupTime",
              "type": "uint256"
            },
            {
              "internalType": "uint256",
              "name": "deliveryTime",
              "type": "uint256"
            },
            {
              "internalType": "enum Transit.transitStatus",
              "name": "status",
              "type": "uint8"
            }
          ],
          "internalType": "struct Transit.Details[]",
          "name": "",
          "type": "tuple[]"
        }
      ],
      "stateMutability": "view",
      "type": "function",
      "constant": true
    },
    {
      "inputs": [
        {
          "internalType": "uint256",
          "name": "_transitID",
          "type": "uint256"
        }
      ],
      "name": "tempTampered",
      "outputs": [],
      "stateMutability": "nonpayable",
      "type": "function"
    },
    {
      "inputs": [
        {
          "internalType": "uint256",
          "name": "_transitID",
          "type": "uint256"
        }
      ],
      "name": "getTransitbyID",
      "outputs": [
        {
          "components": [
            {
              "internalType": "address",
              "name": "sender",
              "type": "address"
            },
            {
              "internalType": "address",
              "name": "receiver",
              "type": "address"
            },
            {
              "internalType": "uint256",
              "name": "pickupTime",
              "type": "uint256"
            },
            {
              "internalType": "uint256",
              "name": "deliveryTime",
              "type": "uint256"
            },
            {
              "internalType": "enum Transit.transitStatus",
              "name": "status",
              "type": "uint8"
            }
          ],
          "internalType": "struct Transit.Details",
          "name": "",
          "type": "tuple"
        }
      ],
      "stateMutability": "view",
      "type": "function",
      "constant": true
    }
  ],
  "bytecode": "0x608060405234801561001057600080fd5b50611428806100206000396000f3fe608060405234801561001057600080fd5b50600436106100875760003560e01c8063a7638b0d1161005b578063a7638b0d14610110578063bc63af5d1461012c578063de80d5401461015c578063dea047ff1461019057610087565b806283a8741461008c57806337e90b15146100bc57806338e93ddd146100d85780636fab5860146100f4575b600080fd5b6100a660048036038101906100a19190610daf565b6101c0565b6040516100b39190610dfe565b60405180910390f35b6100d660048036038101906100d19190610e19565b6101f1565b005b6100f260048036038101906100ed9190610e6c565b610411565b005b61010e60048036038101906101099190610e6c565b6105c7565b005b61012a60048036038101906101259190610eac565b61077d565b005b61014660048036038101906101419190610ed9565b610892565b60405161015391906110b2565b60405180910390f35b61017660048036038101906101719190610eac565b610af9565b6040516101879594939291906110f2565b60405180910390f35b6101aa60048036038101906101a59190610eac565b610b7c565b6040516101b791906111ad565b60405180910390f35b600160205281600052604060002081815481106101dc57600080fd5b90600052602060002001600091509150505481565b6040518060a001604052808373ffffffffffffffffffffffffffffffffffffffff1681526020018273ffffffffffffffffffffffffffffffffffffffff16815260200160008152602001600081526020016000600481111561025657610255610f50565b5b81525060008085815260200190815260200160002060008201518160000160006101000a81548173ffffffffffffffffffffffffffffffffffffffff021916908373ffffffffffffffffffffffffffffffffffffffff16021790555060208201518160010160006101000a81548173ffffffffffffffffffffffffffffffffffffffff021916908373ffffffffffffffffffffffffffffffffffffffff160217905550604082015181600201556060820151816003015560808201518160040160006101000a81548160ff0219169083600481111561033857610337610f50565b5b0217905550905050600160008373ffffffffffffffffffffffffffffffffffffffff1673ffffffffffffffffffffffffffffffffffffffff168152602001908152602001600020839080600181540180825580915050600190039060005260206000200160009091909190915055600160008273ffffffffffffffffffffffffffffffffffffffff1673ffffffffffffffffffffffffffffffffffffffff168152602001908152602001600020839080600181540180825580915050600190039060005260206000200160009091909190915055505050565b600080600084815260200190815260200160002090503373ffffffffffffffffffffffffffffffffffffffff168160000160009054906101000a900473ffffffffffffffffffffffffffffffffffffffff1673ffffffffffffffffffffffffffffffffffffffff161480156104d557508173ffffffffffffffffffffffffffffffffffffffff168160010160009054906101000a900473ffffffffffffffffffffffffffffffffffffffff1673ffffffffffffffffffffffffffffffffffffffff16145b610514576040517f08c379a000000000000000000000000000000000000000000000000000000000815260040161050b90611225565b60405180910390fd5b6000600481111561052857610527610f50565b5b8160040160009054906101000a900460ff16600481111561054c5761054b610f50565b5b1461058c576040517f08c379a000000000000000000000000000000000000000000000000000000000815260040161058390611291565b60405180910390fd5b60018160040160006101000a81548160ff021916908360048111156105b4576105b3610f50565b5b0217905550428160020181905550505050565b600080600084815260200190815260200160002090508173ffffffffffffffffffffffffffffffffffffffff168160000160009054906101000a900473ffffffffffffffffffffffffffffffffffffffff1673ffffffffffffffffffffffffffffffffffffffff1614801561068b57503373ffffffffffffffffffffffffffffffffffffffff168160010160009054906101000a900473ffffffffffffffffffffffffffffffffffffffff1673ffffffffffffffffffffffffffffffffffffffff16145b6106ca576040517f08c379a00000000000000000000000000000000000000000000000000000000081526004016106c190611225565b60405180910390fd5b600160048111156106de576106dd610f50565b5b8160040160009054906101000a900460ff16600481111561070257610701610f50565b5b14610742576040517f08c379a000000000000000000000000000000000000000000000000000000000815260040161073990611291565b60405180910390fd5b60028160040160006101000a81548160ff0219169083600481111561076a57610769610f50565b5b0217905550428160030181905550505050565b60008060008381526020019081526020016000209050600160048111156107a7576107a6610f50565b5b8160040160009054906101000a900460ff1660048111156107cb576107ca610f50565b5b148061080c5750600260048111156107e6576107e5610f50565b5b8160040160009054906101000a900460ff16600481111561080a57610809610f50565b5b145b61081557600080fd5b60048160040160006101000a81548160ff0219169083600481111561083d5761083c610f50565b5b02179055503373ffffffffffffffffffffffffffffffffffffffff167f572f38326c0f991573fca9ec611774793ead7d7ad10d3250a0db6fb12aa78d32604051610886906112fd565b60405180910390a25050565b60606000600160008473ffffffffffffffffffffffffffffffffffffffff1673ffffffffffffffffffffffffffffffffffffffff16815260200190815260200160002080548060200260200160405190810160405280929190818152602001828054801561091f57602002820191906000526020600020905b81548152602001906001019080831161090b575b505050505090506000815167ffffffffffffffff8111156109435761094261131d565b5b60405190808252806020026020018201604052801561097c57816020015b610969610ca9565b8152602001906001900390816109615790505b50905060005b8251811015610aee576000808483815181106109a1576109a061134c565b5b602002602001015181526020019081526020016000206040518060a00160405290816000820160009054906101000a900473ffffffffffffffffffffffffffffffffffffffff1673ffffffffffffffffffffffffffffffffffffffff1673ffffffffffffffffffffffffffffffffffffffff1681526020016001820160009054906101000a900473ffffffffffffffffffffffffffffffffffffffff1673ffffffffffffffffffffffffffffffffffffffff1673ffffffffffffffffffffffffffffffffffffffff16815260200160028201548152602001600382015481526020016004820160009054906101000a900460ff166004811115610aa757610aa6610f50565b5b6004811115610ab957610ab8610f50565b5b81525050828281518110610ad057610acf61134c565b5b60200260200101819052508080610ae6906113aa565b915050610982565b508092505050919050565b60006020528060005260406000206000915090508060000160009054906101000a900473ffffffffffffffffffffffffffffffffffffffff16908060010160009054906101000a900473ffffffffffffffffffffffffffffffffffffffff16908060020154908060030154908060040160009054906101000a900460ff16905085565b610b84610ca9565b60008060008481526020019081526020016000209050806040518060a00160405290816000820160009054906101000a900473ffffffffffffffffffffffffffffffffffffffff1673ffffffffffffffffffffffffffffffffffffffff1673ffffffffffffffffffffffffffffffffffffffff1681526020016001820160009054906101000a900473ffffffffffffffffffffffffffffffffffffffff1673ffffffffffffffffffffffffffffffffffffffff1673ffffffffffffffffffffffffffffffffffffffff16815260200160028201548152602001600382015481526020016004820160009054906101000a900460ff166004811115610c8b57610c8a610f50565b5b6004811115610c9d57610c9c610f50565b5b81525050915050919050565b6040518060a00160405280600073ffffffffffffffffffffffffffffffffffffffff168152602001600073ffffffffffffffffffffffffffffffffffffffff168152602001600081526020016000815260200160006004811115610d1057610d0f610f50565b5b81525090565b600080fd5b600073ffffffffffffffffffffffffffffffffffffffff82169050919050565b6000610d4682610d1b565b9050919050565b610d5681610d3b565b8114610d6157600080fd5b50565b600081359050610d7381610d4d565b92915050565b6000819050919050565b610d8c81610d79565b8114610d9757600080fd5b50565b600081359050610da981610d83565b92915050565b60008060408385031215610dc657610dc5610d16565b5b6000610dd485828601610d64565b9250506020610de585828601610d9a565b9150509250929050565b610df881610d79565b82525050565b6000602082019050610e136000830184610def565b92915050565b600080600060608486031215610e3257610e31610d16565b5b6000610e4086828701610d9a565b9350506020610e5186828701610d64565b9250506040610e6286828701610d64565b9150509250925092565b60008060408385031215610e8357610e82610d16565b5b6000610e9185828601610d9a565b9250506020610ea285828601610d64565b9150509250929050565b600060208284031215610ec257610ec1610d16565b5b6000610ed084828501610d9a565b91505092915050565b600060208284031215610eef57610eee610d16565b5b6000610efd84828501610d64565b91505092915050565b600081519050919050565b600082825260208201905092915050565b6000819050602082019050919050565b610f3b81610d3b565b82525050565b610f4a81610d79565b82525050565b7f4e487b7100000000000000000000000000000000000000000000000000000000600052602160045260246000fd5b60058110610f9057610f8f610f50565b5b50565b6000819050610fa182610f7f565b919050565b6000610fb182610f93565b9050919050565b610fc181610fa6565b82525050565b60a082016000820151610fdd6000850182610f32565b506020820151610ff06020850182610f32565b5060408201516110036040850182610f41565b5060608201516110166060850182610f41565b5060808201516110296080850182610fb8565b50505050565b600061103b8383610fc7565b60a08301905092915050565b6000602082019050919050565b600061105f82610f06565b6110698185610f11565b935061107483610f22565b8060005b838110156110a557815161108c888261102f565b975061109783611047565b925050600181019050611078565b5085935050505092915050565b600060208201905081810360008301526110cc8184611054565b905092915050565b6110dd81610d3b565b82525050565b6110ec81610fa6565b82525050565b600060a08201905061110760008301886110d4565b61111460208301876110d4565b6111216040830186610def565b61112e6060830185610def565b61113b60808301846110e3565b9695505050505050565b60a08201600082015161115b6000850182610f32565b50602082015161116e6020850182610f32565b5060408201516111816040850182610f41565b5060608201516111946060850182610f41565b5060808201516111a76080850182610fb8565b50505050565b600060a0820190506111c26000830184611145565b92915050565b600082825260208201905092915050565b7f496e76616c69642073656e646572206f72207265636569766572000000000000600082015250565b600061120f601a836111c8565b915061121a826111d9565b602082019050919050565b6000602082019050818103600083015261123e81611202565b9050919050565b7f496e76616c6964207472616e7369742073746174757300000000000000000000600082015250565b600061127b6016836111c8565b915061128682611245565b602082019050919050565b600060208201905081810360008301526112aa8161126e565b9050919050565b7f54414d5045524544000000000000000000000000000000000000000000000000600082015250565b60006112e76008836111c8565b91506112f2826112b1565b602082019050919050565b60006020820190508181036000830152611316816112da565b9050919050565b7f4e487b7100000000000000000000000000000000000000000000000000000000600052604160045260246000fd5b7f4e487b7100000000000000000000000000000000000000000000000000000000600052603260045260246000fd5b7f4e487b7100000000000000000000000000000000000000000000000000000000600052601160045260246000fd5b60006113b582610d79565b91507fffffffffffffffffffffffffffffffffffffffffffffffffffffffffffffffff82036113e7576113e661137b565b5b60018201905091905056fea2646970667358221220ff273bae7e09444654db2b933510f27f618b58aa3696a0816a0b2fef2cb69ce464736f6c63430008130033",
  "immutableReferences": {},
  "source": "// SPDX-License-Identifier: MIT\r\npragma solidity 0.8.19;\r\n\r\ncontract Transit {\r\n    enum transitStatus {PENDING, IN_TRANSIT, RECEIVED, RECEIVED_FINAL, TAMPERED}\r\n    \r\n    event Tampered(address indexed sender, string message);\r\n\r\n    struct Details {\r\n        address sender;\r\n        address receiver;\r\n        uint pickupTime;\r\n        uint deliveryTime;\r\n        transitStatus status;\r\n    }\r\n\r\n    mapping(uint => Details) public transits;\r\n    mapping(address => uint[]) public transitIdsByAddress;\r\n\r\n    function createTransit(uint _transitId, address _sender, address _receiver) external {\r\n        transits[_transitId] = Details(_sender, _receiver, 0, 0, transitStatus.PENDING);\r\n        transitIdsByAddress[_sender].push(_transitId);\r\n        transitIdsByAddress[_receiver].push(_transitId);\r\n    }\r\n\r\n    function startTransit(uint _transitId, address _receiver) external {\r\n        Details storage detail = transits[_transitId];\r\n        require(detail.sender == msg.sender && detail.receiver == _receiver, \"Invalid sender or receiver\");\r\n        require(detail.status == transitStatus.PENDING, \"Invalid transit status\");\r\n        detail.status = transitStatus.IN_TRANSIT;\r\n        detail.pickupTime = block.timestamp;\r\n    }\r\n\r\n    function receiveTransit(uint _transitId, address _sender) external {\r\n        Details storage detail = transits[_transitId];\r\n        require(detail.sender == _sender && detail.receiver == msg.sender, \"Invalid sender or receiver\");\r\n        require(detail.status == transitStatus.IN_TRANSIT, \"Invalid transit status\");\r\n        detail.status = transitStatus.RECEIVED;\r\n        detail.deliveryTime = block.timestamp;\r\n    }\r\n\r\n    function getTransitsByAddress(address _address) public view returns (Details[] memory) {\r\n        uint[] memory transitIds = transitIdsByAddress[_address];\r\n        Details[] memory result = new Details[](transitIds.length);\r\n        \r\n        for (uint i = 0; i < transitIds.length; i++) {\r\n            result[i] = transits[transitIds[i]];\r\n        }\r\n        \r\n        return result;\r\n    }\r\n\r\n    function tempTampered(uint _transitID) external {\r\n        Details storage detail = transits[_transitID];\r\n        require(detail.status == transitStatus.IN_TRANSIT || detail.status == transitStatus.RECEIVED);\r\n        detail.status = transitStatus.TAMPERED;\r\n        emit Tampered(msg.sender, \"TAMPERED\");\r\n    }\r\n\r\n    function getTransitbyID(uint _transitID) public view returns (Details memory) {\r\n        Details storage detail = transits[_transitID];\r\n        return detail;\r\n    }\r\n}\r\n",
  "sourcePath": "C:\\Users\\Hp\\Projects\\blockchain\\VaxChain\\contracts\\Transit.sol",
  "compiler": {
    "name": "solc",
    "version": "0.8.19+commit.7dd6d404.Emscripten.clang"
  },
  "schemaVersion": "3.4.16",
  "updatedAt": "2024-04-23T16:35:11.824Z",
  "networkType": "ethereum",
  "devdoc": {
    "kind": "dev",
    "methods": {},
    "version": 1
  },
  "userdoc": {
    "kind": "user",
    "methods": {},
    "version": 1
  }
}