{
  "contractName": "Transit",
  "contractAddress": "0xc599883A240241e14c941936B55EB8e0f2c1445A",
  "abi": [
    {
      "anonymous": false,
      "inputs": [
        {
          "indexed": true,
          "internalType": "address",
          "name": "sender",
          "type": "address"
        },
        {
          "indexed": false,
          "internalType": "string",
          "name": "message",
          "type": "string"
        }
      ],
      "name": "Tampered",
      "type": "event"
    },
    {
      "inputs": [
        {
          "internalType": "address",
          "name": "",
          "type": "address"
        },
        {
          "internalType": "uint256",
          "name": "",
          "type": "uint256"
        }
      ],
      "name": "transitIdsByAddress",
      "outputs": [
        {
          "internalType": "uint256",
          "name": "",
          "type": "uint256"
        }
      ],
      "stateMutability": "view",
      "type": "function",
      "constant": true
    },
    {
      "inputs": [
        {
          "internalType": "uint256",
          "name": "",
          "type": "uint256"
        }
      ],
      "name": "transits",
      "outputs": [
        {
          "internalType": "uint256",
          "name": "transitId",
          "type": "uint256"
        },
        {
          "internalType": "address",
          "name": "sender",
          "type": "address"
        },
        {
          "internalType": "address",
          "name": "receiver",
          "type": "address"
        },
        {
          "internalType": "uint256",
          "name": "pickupTime",
          "type": "uint256"
        },
        {
          "internalType": "uint256",
          "name": "deliveryTime",
          "type": "uint256"
        },
        {
          "internalType": "enum Transit.transitStatus",
          "name": "status",
          "type": "uint8"
        }
      ],
      "stateMutability": "view",
      "type": "function",
      "constant": true
    },
    {
      "inputs": [
        {
          "internalType": "uint256",
          "name": "_transitId",
          "type": "uint256"
        },
        {
          "internalType": "address",
          "name": "_sender",
          "type": "address"
        },
        {
          "internalType": "address",
          "name": "_receiver",
          "type": "address"
        }
      ],
      "name": "createTransit",
      "outputs": [],
      "stateMutability": "nonpayable",
      "type": "function"
    },
    {
      "inputs": [
        {
          "internalType": "uint256",
          "name": "_transitId",
          "type": "uint256"
        },
        {
          "internalType": "address",
          "name": "_receiver",
          "type": "address"
        }
      ],
      "name": "startTransit",
      "outputs": [],
      "stateMutability": "nonpayable",
      "type": "function"
    },
    {
      "inputs": [
        {
          "internalType": "uint256",
          "name": "_transitId",
          "type": "uint256"
        },
        {
          "internalType": "address",
          "name": "_sender",
          "type": "address"
        }
      ],
      "name": "receiveTransit",
      "outputs": [],
      "stateMutability": "nonpayable",
      "type": "function"
    },
    {
      "inputs": [
        {
          "internalType": "address",
          "name": "_address",
          "type": "address"
        }
      ],
      "name": "getTransitsByAddress",
      "outputs": [
        {
          "components": [
            {
              "internalType": "uint256",
              "name": "transitId",
              "type": "uint256"
            },
            {
              "internalType": "address",
              "name": "sender",
              "type": "address"
            },
            {
              "internalType": "address",
              "name": "receiver",
              "type": "address"
            },
            {
              "internalType": "uint256",
              "name": "pickupTime",
              "type": "uint256"
            },
            {
              "internalType": "uint256",
              "name": "deliveryTime",
              "type": "uint256"
            },
            {
              "internalType": "enum Transit.transitStatus",
              "name": "status",
              "type": "uint8"
            }
          ],
          "internalType": "struct Transit.Details[]",
          "name": "",
          "type": "tuple[]"
        }
      ],
      "stateMutability": "view",
      "type": "function",
      "constant": true
    },
    {
      "inputs": [
        {
          "internalType": "uint256",
          "name": "_transitID",
          "type": "uint256"
        }
      ],
      "name": "tempTampered",
      "outputs": [],
      "stateMutability": "nonpayable",
      "type": "function"
    },
    {
      "inputs": [
        {
          "internalType": "uint256",
          "name": "_transitID",
          "type": "uint256"
        }
      ],
      "name": "getTransitbyID",
      "outputs": [
        {
          "components": [
            {
              "internalType": "uint256",
              "name": "transitId",
              "type": "uint256"
            },
            {
              "internalType": "address",
              "name": "sender",
              "type": "address"
            },
            {
              "internalType": "address",
              "name": "receiver",
              "type": "address"
            },
            {
              "internalType": "uint256",
              "name": "pickupTime",
              "type": "uint256"
            },
            {
              "internalType": "uint256",
              "name": "deliveryTime",
              "type": "uint256"
            },
            {
              "internalType": "enum Transit.transitStatus",
              "name": "status",
              "type": "uint8"
            }
          ],
          "internalType": "struct Transit.Details",
          "name": "",
          "type": "tuple"
        }
      ],
      "stateMutability": "view",
      "type": "function",
      "constant": true
    }
  ],
  "bytecode": "0x608060405234801561001057600080fd5b506116ea806100206000396000f3fe608060405234801561001057600080fd5b50600436106100875760003560e01c8063a7638b0d1161005b578063a7638b0d14610110578063bc63af5d1461012c578063de80d5401461015c578063dea047ff1461019157610087565b806283a8741461008c57806337e90b15146100bc57806338e93ddd146100d85780636fab5860146100f4575b600080fd5b6100a660048036038101906100a1919061103d565b6101c1565b6040516100b3919061108c565b60405180910390f35b6100d660048036038101906100d191906110a7565b6101f2565b005b6100f260048036038101906100ed91906110fa565b61055a565b005b61010e600480360381019061010991906110fa565b610710565b005b61012a6004803603810190610125919061113a565b6108c6565b005b61014660048036038101906101419190611167565b6109db565b6040516101539190611353565b60405180910390f35b6101766004803603810190610171919061113a565b610d15565b60405161018896959493929190611393565b60405180910390f35b6101ab60048036038101906101a6919061113a565b610d9e565b6040516101b8919061146f565b60405180910390f35b600160205281600052604060002081815481106101dd57600080fd5b90600052602060002001600091509150505481565b6040518060c001604052808481526020018373ffffffffffffffffffffffffffffffffffffffff1681526020018273ffffffffffffffffffffffffffffffffffffffff16815260200160008152602001600081526020016000600481111561025d5761025c6111de565b5b8152506000808581526020019081526020016000206000820151816000015560208201518160010160006101000a81548173ffffffffffffffffffffffffffffffffffffffff021916908373ffffffffffffffffffffffffffffffffffffffff16021790555060408201518160020160006101000a81548173ffffffffffffffffffffffffffffffffffffffff021916908373ffffffffffffffffffffffffffffffffffffffff160217905550606082015181600301556080820151816004015560a08201518160050160006101000a81548160ff02191690836004811115610349576103486111de565b5b02179055509050506103e8600160008473ffffffffffffffffffffffffffffffffffffffff1673ffffffffffffffffffffffffffffffffffffffff1681526020019081526020016000208054806020026020016040519081016040528092919081815260200182805480156103dd57602002820191906000526020600020905b8154815260200190600101908083116103c9575b505050505084610ed5565b61045357600160008373ffffffffffffffffffffffffffffffffffffffff1673ffffffffffffffffffffffffffffffffffffffff1681526020019081526020016000208390806001815401808255809150506001900390600052602060002001600090919091909150555b6104ea600160008373ffffffffffffffffffffffffffffffffffffffff1673ffffffffffffffffffffffffffffffffffffffff1681526020019081526020016000208054806020026020016040519081016040528092919081815260200182805480156104df57602002820191906000526020600020905b8154815260200190600101908083116104cb575b505050505084610ed5565b61055557600160008273ffffffffffffffffffffffffffffffffffffffff1673ffffffffffffffffffffffffffffffffffffffff1681526020019081526020016000208390806001815401808255809150506001900390600052602060002001600090919091909150555b505050565b600080600084815260200190815260200160002090503373ffffffffffffffffffffffffffffffffffffffff168160010160009054906101000a900473ffffffffffffffffffffffffffffffffffffffff1673ffffffffffffffffffffffffffffffffffffffff1614801561061e57508173ffffffffffffffffffffffffffffffffffffffff168160020160009054906101000a900473ffffffffffffffffffffffffffffffffffffffff1673ffffffffffffffffffffffffffffffffffffffff16145b61065d576040517f08c379a0000000000000000000000000000000000000000000000000000000008152600401610654906114e7565b60405180910390fd5b60006004811115610671576106706111de565b5b8160050160009054906101000a900460ff166004811115610695576106946111de565b5b146106d5576040517f08c379a00000000000000000000000000000000000000000000000000000000081526004016106cc90611553565b60405180910390fd5b60018160050160006101000a81548160ff021916908360048111156106fd576106fc6111de565b5b0217905550428160030181905550505050565b600080600084815260200190815260200160002090508173ffffffffffffffffffffffffffffffffffffffff168160010160009054906101000a900473ffffffffffffffffffffffffffffffffffffffff1673ffffffffffffffffffffffffffffffffffffffff161480156107d457503373ffffffffffffffffffffffffffffffffffffffff168160020160009054906101000a900473ffffffffffffffffffffffffffffffffffffffff1673ffffffffffffffffffffffffffffffffffffffff16145b610813576040517f08c379a000000000000000000000000000000000000000000000000000000000815260040161080a906114e7565b60405180910390fd5b60016004811115610827576108266111de565b5b8160050160009054906101000a900460ff16600481111561084b5761084a6111de565b5b1461088b576040517f08c379a000000000000000000000000000000000000000000000000000000000815260040161088290611553565b60405180910390fd5b60028160050160006101000a81548160ff021916908360048111156108b3576108b26111de565b5b0217905550428160040181905550505050565b60008060008381526020019081526020016000209050600160048111156108f0576108ef6111de565b5b8160050160009054906101000a900460ff166004811115610914576109136111de565b5b148061095557506002600481111561092f5761092e6111de565b5b8160050160009054906101000a900460ff166004811115610953576109526111de565b5b145b61095e57600080fd5b60048160050160006101000a81548160ff02191690836004811115610986576109856111de565b5b02179055503373ffffffffffffffffffffffffffffffffffffffff167f572f38326c0f991573fca9ec611774793ead7d7ad10d3250a0db6fb12aa78d326040516109cf906115bf565b60405180910390a25050565b60606000600160008473ffffffffffffffffffffffffffffffffffffffff1673ffffffffffffffffffffffffffffffffffffffff168152602001908152602001600020805480602002602001604051908101604052809291908181526020018280548015610a6857602002820191906000526020600020905b815481526020019060010190808311610a54575b505050505090506000815167ffffffffffffffff811115610a8c57610a8b6115df565b5b604051908082528060200260200182016040528015610ac557816020015b610ab2610f30565b815260200190600190039081610aaa5790505b5090506000805b8351811015610d09576000806000868481518110610aed57610aec61160e565b5b6020026020010151815260200190815260200160002090508673ffffffffffffffffffffffffffffffffffffffff168160010160009054906101000a900473ffffffffffffffffffffffffffffffffffffffff1673ffffffffffffffffffffffffffffffffffffffff161480610bb257508673ffffffffffffffffffffffffffffffffffffffff168160020160009054906101000a900473ffffffffffffffffffffffffffffffffffffffff1673ffffffffffffffffffffffffffffffffffffffff16145b15610cf557806040518060c0016040529081600082015481526020016001820160009054906101000a900473ffffffffffffffffffffffffffffffffffffffff1673ffffffffffffffffffffffffffffffffffffffff1673ffffffffffffffffffffffffffffffffffffffff1681526020016002820160009054906101000a900473ffffffffffffffffffffffffffffffffffffffff1673ffffffffffffffffffffffffffffffffffffffff1673ffffffffffffffffffffffffffffffffffffffff16815260200160038201548152602001600482015481526020016005820160009054906101000a900460ff166004811115610cb257610cb16111de565b5b6004811115610cc457610cc36111de565b5b81525050848481518110610cdb57610cda61160e565b5b60200260200101819052508280610cf19061166c565b9350505b508080610d019061166c565b915050610acc565b50819350505050919050565b60006020528060005260406000206000915090508060000154908060010160009054906101000a900473ffffffffffffffffffffffffffffffffffffffff16908060020160009054906101000a900473ffffffffffffffffffffffffffffffffffffffff16908060030154908060040154908060050160009054906101000a900460ff16905086565b610da6610f30565b60008060008481526020019081526020016000209050806040518060c0016040529081600082015481526020016001820160009054906101000a900473ffffffffffffffffffffffffffffffffffffffff1673ffffffffffffffffffffffffffffffffffffffff1673ffffffffffffffffffffffffffffffffffffffff1681526020016002820160009054906101000a900473ffffffffffffffffffffffffffffffffffffffff1673ffffffffffffffffffffffffffffffffffffffff1673ffffffffffffffffffffffffffffffffffffffff16815260200160038201548152602001600482015481526020016005820160009054906101000a900460ff166004811115610eb757610eb66111de565b5b6004811115610ec957610ec86111de565b5b81525050915050919050565b600080600090505b8351811015610f245782848281518110610efa57610ef961160e565b5b602002602001015103610f11576001915050610f2a565b8080610f1c9061166c565b915050610edd565b50600090505b92915050565b6040518060c0016040528060008152602001600073ffffffffffffffffffffffffffffffffffffffff168152602001600073ffffffffffffffffffffffffffffffffffffffff168152602001600081526020016000815260200160006004811115610f9e57610f9d6111de565b5b81525090565b600080fd5b600073ffffffffffffffffffffffffffffffffffffffff82169050919050565b6000610fd482610fa9565b9050919050565b610fe481610fc9565b8114610fef57600080fd5b50565b60008135905061100181610fdb565b92915050565b6000819050919050565b61101a81611007565b811461102557600080fd5b50565b60008135905061103781611011565b92915050565b6000806040838503121561105457611053610fa4565b5b600061106285828601610ff2565b925050602061107385828601611028565b9150509250929050565b61108681611007565b82525050565b60006020820190506110a1600083018461107d565b92915050565b6000806000606084860312156110c0576110bf610fa4565b5b60006110ce86828701611028565b93505060206110df86828701610ff2565b92505060406110f086828701610ff2565b9150509250925092565b6000806040838503121561111157611110610fa4565b5b600061111f85828601611028565b925050602061113085828601610ff2565b9150509250929050565b6000602082840312156111505761114f610fa4565b5b600061115e84828501611028565b91505092915050565b60006020828403121561117d5761117c610fa4565b5b600061118b84828501610ff2565b91505092915050565b600081519050919050565b600082825260208201905092915050565b6000819050602082019050919050565b6111c981611007565b82525050565b6111d881610fc9565b82525050565b7f4e487b7100000000000000000000000000000000000000000000000000000000600052602160045260246000fd5b6005811061121e5761121d6111de565b5b50565b600081905061122f8261120d565b919050565b600061123f82611221565b9050919050565b61124f81611234565b82525050565b60c08201600082015161126b60008501826111c0565b50602082015161127e60208501826111cf565b50604082015161129160408501826111cf565b5060608201516112a460608501826111c0565b5060808201516112b760808501826111c0565b5060a08201516112ca60a0850182611246565b50505050565b60006112dc8383611255565b60c08301905092915050565b6000602082019050919050565b600061130082611194565b61130a818561119f565b9350611315836111b0565b8060005b8381101561134657815161132d88826112d0565b9750611338836112e8565b925050600181019050611319565b5085935050505092915050565b6000602082019050818103600083015261136d81846112f5565b905092915050565b61137e81610fc9565b82525050565b61138d81611234565b82525050565b600060c0820190506113a8600083018961107d565b6113b56020830188611375565b6113c26040830187611375565b6113cf606083018661107d565b6113dc608083018561107d565b6113e960a0830184611384565b979650505050505050565b60c08201600082015161140a60008501826111c0565b50602082015161141d60208501826111cf565b50604082015161143060408501826111cf565b50606082015161144360608501826111c0565b50608082015161145660808501826111c0565b5060a082015161146960a0850182611246565b50505050565b600060c08201905061148460008301846113f4565b92915050565b600082825260208201905092915050565b7f496e76616c69642073656e646572206f72207265636569766572000000000000600082015250565b60006114d1601a8361148a565b91506114dc8261149b565b602082019050919050565b60006020820190508181036000830152611500816114c4565b9050919050565b7f496e76616c6964207472616e7369742073746174757300000000000000000000600082015250565b600061153d60168361148a565b915061154882611507565b602082019050919050565b6000602082019050818103600083015261156c81611530565b9050919050565b7f54414d5045524544000000000000000000000000000000000000000000000000600082015250565b60006115a960088361148a565b91506115b482611573565b602082019050919050565b600060208201905081810360008301526115d88161159c565b9050919050565b7f4e487b7100000000000000000000000000000000000000000000000000000000600052604160045260246000fd5b7f4e487b7100000000000000000000000000000000000000000000000000000000600052603260045260246000fd5b7f4e487b7100000000000000000000000000000000000000000000000000000000600052601160045260246000fd5b600061167782611007565b91507fffffffffffffffffffffffffffffffffffffffffffffffffffffffffffffffff82036116a9576116a861163d565b5b60018201905091905056fea26469706673582212202053ca0776c31953684d4cf1c9d73df5f41f22c639073e7a6acdd8310223a4ed64736f6c63430008130033",
  "immutableReferences": {},
  "source": "// SPDX-License-Identifier: MIT\r\npragma solidity 0.8.19;\r\n\r\ncontract Transit {\r\n    enum transitStatus {PENDING, IN_TRANSIT, RECEIVED, RECEIVED_FINAL, TAMPERED}\r\n    \r\n    event Tampered(address indexed sender, string message);\r\n\r\n    struct Details {\r\n        uint transitId; // New field to store the transit ID\r\n        address sender;\r\n        address receiver;\r\n        uint pickupTime;\r\n        uint deliveryTime;\r\n        transitStatus status;\r\n    }\r\n\r\n    mapping(uint => Details) public transits;\r\n    mapping(address => uint[]) public transitIdsByAddress;\r\n\r\n    function createTransit(uint _transitId, address _sender, address _receiver) external {\r\n        transits[_transitId] = Details(_transitId, _sender, _receiver, 0, 0, transitStatus.PENDING);\r\n        \r\n        if (!isTransitIdExists(transitIdsByAddress[_sender], _transitId)) {\r\n            transitIdsByAddress[_sender].push(_transitId);\r\n        }\r\n        \r\n        if (!isTransitIdExists(transitIdsByAddress[_receiver], _transitId)) {\r\n            transitIdsByAddress[_receiver].push(_transitId);\r\n        }\r\n    }\r\n\r\n    function startTransit(uint _transitId, address _receiver) external {\r\n        Details storage detail = transits[_transitId];\r\n        require(detail.sender == msg.sender && detail.receiver == _receiver, \"Invalid sender or receiver\");\r\n        require(detail.status == transitStatus.PENDING, \"Invalid transit status\");\r\n        detail.status = transitStatus.IN_TRANSIT;\r\n        detail.pickupTime = block.timestamp;\r\n    }\r\n\r\n    function receiveTransit(uint _transitId, address _sender) external {\r\n        Details storage detail = transits[_transitId];\r\n        require(detail.sender == _sender && detail.receiver == msg.sender, \"Invalid sender or receiver\");\r\n        require(detail.status == transitStatus.IN_TRANSIT, \"Invalid transit status\");\r\n        detail.status = transitStatus.RECEIVED;\r\n        detail.deliveryTime = block.timestamp;\r\n    }\r\n\r\n    function getTransitsByAddress(address _address) public view returns (Details[] memory) {\r\n        uint[] memory transitIds = transitIdsByAddress[_address];\r\n        Details[] memory result = new Details[](transitIds.length);\r\n        uint resultIndex = 0;\r\n        \r\n        for (uint i = 0; i < transitIds.length; i++) {\r\n            Details storage detail = transits[transitIds[i]];\r\n            if (detail.sender == _address || detail.receiver == _address) {\r\n                result[resultIndex] = detail;\r\n                resultIndex++;\r\n            }\r\n        }\r\n        \r\n        return result;\r\n    }\r\n\r\n    function isTransitIdExists(uint[] memory ids, uint id) internal pure returns (bool) {\r\n        for (uint i = 0; i < ids.length; i++) {\r\n            if (ids[i] == id) {\r\n                return true;\r\n            }\r\n        }\r\n        return false;\r\n    }\r\n\r\n    function tempTampered(uint _transitID) external {\r\n        Details storage detail = transits[_transitID];\r\n        require(detail.status == transitStatus.IN_TRANSIT || detail.status == transitStatus.RECEIVED);\r\n        detail.status = transitStatus.TAMPERED;\r\n        emit Tampered(msg.sender, \"TAMPERED\");\r\n    }\r\n\r\n    function getTransitbyID(uint _transitID) public view returns (Details memory) {\r\n        Details storage detail = transits[_transitID];\r\n        return detail;\r\n    }\r\n}\r\n",
  "sourcePath": "C:\\Users\\Hp\\Projects\\blockchain\\VaxChain\\contracts\\Transit.sol",
  "compiler": {
    "name": "solc",
    "version": "0.8.19+commit.7dd6d404.Emscripten.clang"
  },
  "schemaVersion": "3.4.16",
  "updatedAt": "2024-04-27T13:13:18.962Z",
  "networkType": "ethereum",
  "devdoc": {
    "kind": "dev",
    "methods": {},
    "version": 1
  },
  "userdoc": {
    "kind": "user",
    "methods": {},
    "version": 1
  }
}