{
  "contractName": "Transit",
  "contractAddress": "0x59152890D353941040Ac96EF327559bfB389161B",
  "abi": [
    {
      "inputs": [],
      "stateMutability": "nonpayable",
      "type": "constructor"
    },
    {
      "anonymous": false,
      "inputs": [
        {
          "indexed": true,
          "internalType": "address",
          "name": "previousOwner",
          "type": "address"
        },
        {
          "indexed": true,
          "internalType": "address",
          "name": "newOwner",
          "type": "address"
        }
      ],
      "name": "OwnershipTransferred",
      "type": "event"
    },
    {
      "anonymous": false,
      "inputs": [
        {
          "indexed": true,
          "internalType": "bytes32",
          "name": "role",
          "type": "bytes32"
        },
        {
          "indexed": true,
          "internalType": "bytes32",
          "name": "previousAdminRole",
          "type": "bytes32"
        },
        {
          "indexed": true,
          "internalType": "bytes32",
          "name": "newAdminRole",
          "type": "bytes32"
        }
      ],
      "name": "RoleAdminChanged",
      "type": "event"
    },
    {
      "anonymous": false,
      "inputs": [
        {
          "indexed": true,
          "internalType": "bytes32",
          "name": "role",
          "type": "bytes32"
        },
        {
          "indexed": true,
          "internalType": "address",
          "name": "account",
          "type": "address"
        },
        {
          "indexed": true,
          "internalType": "address",
          "name": "sender",
          "type": "address"
        }
      ],
      "name": "RoleGranted",
      "type": "event"
    },
    {
      "anonymous": false,
      "inputs": [
        {
          "indexed": true,
          "internalType": "bytes32",
          "name": "role",
          "type": "bytes32"
        },
        {
          "indexed": true,
          "internalType": "address",
          "name": "account",
          "type": "address"
        },
        {
          "indexed": true,
          "internalType": "address",
          "name": "sender",
          "type": "address"
        }
      ],
      "name": "RoleRevoked",
      "type": "event"
    },
    {
      "anonymous": false,
      "inputs": [
        {
          "indexed": true,
          "internalType": "address",
          "name": "sender",
          "type": "address"
        },
        {
          "indexed": false,
          "internalType": "string",
          "name": "message",
          "type": "string"
        }
      ],
      "name": "Tampered",
      "type": "event"
    },
    {
      "inputs": [],
      "name": "DEFAULT_ADMIN_ROLE",
      "outputs": [
        {
          "internalType": "bytes32",
          "name": "",
          "type": "bytes32"
        }
      ],
      "stateMutability": "view",
      "type": "function",
      "constant": true
    },
    {
      "inputs": [],
      "name": "MANAGER_ROLE",
      "outputs": [
        {
          "internalType": "bytes32",
          "name": "",
          "type": "bytes32"
        }
      ],
      "stateMutability": "view",
      "type": "function",
      "constant": true
    },
    {
      "inputs": [
        {
          "internalType": "bytes32",
          "name": "role",
          "type": "bytes32"
        }
      ],
      "name": "getRoleAdmin",
      "outputs": [
        {
          "internalType": "bytes32",
          "name": "",
          "type": "bytes32"
        }
      ],
      "stateMutability": "view",
      "type": "function",
      "constant": true
    },
    {
      "inputs": [
        {
          "internalType": "bytes32",
          "name": "role",
          "type": "bytes32"
        },
        {
          "internalType": "address",
          "name": "account",
          "type": "address"
        }
      ],
      "name": "grantRole",
      "outputs": [],
      "stateMutability": "nonpayable",
      "type": "function"
    },
    {
      "inputs": [
        {
          "internalType": "bytes32",
          "name": "role",
          "type": "bytes32"
        },
        {
          "internalType": "address",
          "name": "account",
          "type": "address"
        }
      ],
      "name": "hasRole",
      "outputs": [
        {
          "internalType": "bool",
          "name": "",
          "type": "bool"
        }
      ],
      "stateMutability": "view",
      "type": "function",
      "constant": true
    },
    {
      "inputs": [],
      "name": "owner",
      "outputs": [
        {
          "internalType": "address",
          "name": "",
          "type": "address"
        }
      ],
      "stateMutability": "view",
      "type": "function",
      "constant": true
    },
    {
      "inputs": [],
      "name": "renounceOwnership",
      "outputs": [],
      "stateMutability": "nonpayable",
      "type": "function"
    },
    {
      "inputs": [
        {
          "internalType": "bytes32",
          "name": "role",
          "type": "bytes32"
        },
        {
          "internalType": "address",
          "name": "account",
          "type": "address"
        }
      ],
      "name": "renounceRole",
      "outputs": [],
      "stateMutability": "nonpayable",
      "type": "function"
    },
    {
      "inputs": [
        {
          "internalType": "bytes32",
          "name": "role",
          "type": "bytes32"
        },
        {
          "internalType": "address",
          "name": "account",
          "type": "address"
        }
      ],
      "name": "revokeRole",
      "outputs": [],
      "stateMutability": "nonpayable",
      "type": "function"
    },
    {
      "inputs": [
        {
          "internalType": "bytes4",
          "name": "interfaceId",
          "type": "bytes4"
        }
      ],
      "name": "supportsInterface",
      "outputs": [
        {
          "internalType": "bool",
          "name": "",
          "type": "bool"
        }
      ],
      "stateMutability": "view",
      "type": "function",
      "constant": true
    },
    {
      "inputs": [
        {
          "internalType": "address",
          "name": "newOwner",
          "type": "address"
        }
      ],
      "name": "transferOwnership",
      "outputs": [],
      "stateMutability": "nonpayable",
      "type": "function"
    },
    {
      "inputs": [
        {
          "internalType": "address",
          "name": "",
          "type": "address"
        },
        {
          "internalType": "uint256",
          "name": "",
          "type": "uint256"
        }
      ],
      "name": "transitIdsByAddress",
      "outputs": [
        {
          "internalType": "uint256",
          "name": "",
          "type": "uint256"
        }
      ],
      "stateMutability": "view",
      "type": "function",
      "constant": true
    },
    {
      "inputs": [
        {
          "internalType": "uint256",
          "name": "",
          "type": "uint256"
        }
      ],
      "name": "transits",
      "outputs": [
        {
          "internalType": "uint256",
          "name": "transitId",
          "type": "uint256"
        },
        {
          "internalType": "address",
          "name": "sender",
          "type": "address"
        },
        {
          "internalType": "address",
          "name": "receiver",
          "type": "address"
        },
        {
          "internalType": "uint256",
          "name": "pickupTime",
          "type": "uint256"
        },
        {
          "internalType": "uint256",
          "name": "deliveryTime",
          "type": "uint256"
        },
        {
          "internalType": "enum Transit.transitStatus",
          "name": "status",
          "type": "uint8"
        }
      ],
      "stateMutability": "view",
      "type": "function",
      "constant": true
    },
    {
      "inputs": [
        {
          "internalType": "address",
          "name": "manager",
          "type": "address"
        }
      ],
      "name": "registerManager",
      "outputs": [],
      "stateMutability": "nonpayable",
      "type": "function"
    },
    {
      "inputs": [
        {
          "internalType": "address",
          "name": "manager",
          "type": "address"
        }
      ],
      "name": "removeManager",
      "outputs": [],
      "stateMutability": "nonpayable",
      "type": "function"
    },
    {
      "inputs": [
        {
          "internalType": "address",
          "name": "manager",
          "type": "address"
        }
      ],
      "name": "checkManager",
      "outputs": [
        {
          "internalType": "bool",
          "name": "",
          "type": "bool"
        }
      ],
      "stateMutability": "view",
      "type": "function",
      "constant": true
    },
    {
      "inputs": [
        {
          "internalType": "uint256",
          "name": "_transitId",
          "type": "uint256"
        },
        {
          "internalType": "address",
          "name": "_sender",
          "type": "address"
        },
        {
          "internalType": "address",
          "name": "_receiver",
          "type": "address"
        }
      ],
      "name": "createTransit",
      "outputs": [],
      "stateMutability": "nonpayable",
      "type": "function"
    },
    {
      "inputs": [
        {
          "internalType": "uint256",
          "name": "_transitId",
          "type": "uint256"
        },
        {
          "internalType": "address",
          "name": "_receiver",
          "type": "address"
        }
      ],
      "name": "startTransit",
      "outputs": [],
      "stateMutability": "nonpayable",
      "type": "function"
    },
    {
      "inputs": [
        {
          "internalType": "uint256",
          "name": "_transitId",
          "type": "uint256"
        },
        {
          "internalType": "address",
          "name": "_sender",
          "type": "address"
        }
      ],
      "name": "receiveTransit",
      "outputs": [],
      "stateMutability": "nonpayable",
      "type": "function"
    },
    {
      "inputs": [
        {
          "internalType": "address",
          "name": "_address",
          "type": "address"
        }
      ],
      "name": "getTransitsByAddress",
      "outputs": [
        {
          "components": [
            {
              "internalType": "uint256",
              "name": "transitId",
              "type": "uint256"
            },
            {
              "internalType": "address",
              "name": "sender",
              "type": "address"
            },
            {
              "internalType": "address",
              "name": "receiver",
              "type": "address"
            },
            {
              "internalType": "uint256",
              "name": "pickupTime",
              "type": "uint256"
            },
            {
              "internalType": "uint256",
              "name": "deliveryTime",
              "type": "uint256"
            },
            {
              "internalType": "enum Transit.transitStatus",
              "name": "status",
              "type": "uint8"
            }
          ],
          "internalType": "struct Transit.Details[]",
          "name": "",
          "type": "tuple[]"
        }
      ],
      "stateMutability": "view",
      "type": "function",
      "constant": true
    },
    {
      "inputs": [
        {
          "internalType": "uint256",
          "name": "_transitID",
          "type": "uint256"
        }
      ],
      "name": "tempTampered",
      "outputs": [],
      "stateMutability": "nonpayable",
      "type": "function"
    },
    {
      "inputs": [
        {
          "internalType": "uint256",
          "name": "_transitID",
          "type": "uint256"
        }
      ],
      "name": "getTransitbyID",
      "outputs": [
        {
          "components": [
            {
              "internalType": "uint256",
              "name": "transitId",
              "type": "uint256"
            },
            {
              "internalType": "address",
              "name": "sender",
              "type": "address"
            },
            {
              "internalType": "address",
              "name": "receiver",
              "type": "address"
            },
            {
              "internalType": "uint256",
              "name": "pickupTime",
              "type": "uint256"
            },
            {
              "internalType": "uint256",
              "name": "deliveryTime",
              "type": "uint256"
            },
            {
              "internalType": "enum Transit.transitStatus",
              "name": "status",
              "type": "uint8"
            }
          ],
          "internalType": "struct Transit.Details",
          "name": "",
          "type": "tuple"
        }
      ],
      "stateMutability": "view",
      "type": "function",
      "constant": true
    }
  ],
  "bytecode": "0x60806040523480156200001157600080fd5b5062000032620000266200004d60201b60201c565b6200005560201b60201c565b620000476000801b336200011960201b60201c565b62000275565b600033905090565b60008060009054906101000a900473ffffffffffffffffffffffffffffffffffffffff169050816000806101000a81548173ffffffffffffffffffffffffffffffffffffffff021916908373ffffffffffffffffffffffffffffffffffffffff1602179055508173ffffffffffffffffffffffffffffffffffffffff168173ffffffffffffffffffffffffffffffffffffffff167f8be0079c531659141344cd1fd0a4f28419497f9722a3daafe3b4186f6b6457e060405160405180910390a35050565b6200012b82826200020a60201b60201c565b6200020657600180600084815260200190815260200160002060000160008373ffffffffffffffffffffffffffffffffffffffff1673ffffffffffffffffffffffffffffffffffffffff16815260200190815260200160002060006101000a81548160ff021916908315150217905550620001ab6200004d60201b60201c565b73ffffffffffffffffffffffffffffffffffffffff168173ffffffffffffffffffffffffffffffffffffffff16837f2f8788117e7eff1d82e926ec794901d17c78024a50270940304540a733656f0d60405160405180910390a45b5050565b60006001600084815260200190815260200160002060000160008373ffffffffffffffffffffffffffffffffffffffff1673ffffffffffffffffffffffffffffffffffffffff16815260200190815260200160002060009054906101000a900460ff16905092915050565b61293580620002856000396000f3fe608060405234801561001057600080fd5b50600436106101415760003560e01c806391d14854116100b8578063d547741f1161007c578063d547741f1461035c578063de80d54014610378578063dea047ff146103ad578063ec26019d146103dd578063ec87621c1461040d578063f2fde38b1461042b57610141565b806391d14854146102a6578063a217fddf146102d6578063a7638b0d146102f4578063ac18de4314610310578063bc63af5d1461032c57610141565b806336568abe1161010a57806336568abe1461020e57806337e90b151461022a57806338e93ddd146102465780636fab586014610262578063715018a61461027e5780638da5cb5b1461028857610141565b806283a8741461014657806301ffc9a714610176578063248a9ca3146101a65780632b2da97e146101d65780632f2ff15d146101f2575b600080fd5b610160600480360381019061015b9190611c9b565b610447565b60405161016d9190611cea565b60405180910390f35b610190600480360381019061018b9190611d5d565b610478565b60405161019d9190611da5565b60405180910390f35b6101c060048036038101906101bb9190611df6565b6104f2565b6040516101cd9190611e32565b60405180910390f35b6101f060048036038101906101eb9190611e4d565b610512565b005b61020c60048036038101906102079190611e7a565b610547565b005b61022860048036038101906102239190611e7a565b610568565b005b610244600480360381019061023f9190611eba565b6105eb565b005b610260600480360381019061025b9190611f0d565b610954565b005b61027c60048036038101906102779190611f0d565b610b0b565b005b610286610cc2565b005b610290610cd6565b60405161029d9190611f5c565b60405180910390f35b6102c060048036038101906102bb9190611e7a565b610cff565b6040516102cd9190611da5565b60405180910390f35b6102de610d6a565b6040516102eb9190611e32565b60405180910390f35b61030e60048036038101906103099190611f77565b610d71565b005b61032a60048036038101906103259190611e4d565b610e87565b005b61034660048036038101906103419190611e4d565b610ebc565b6040516103539190612163565b60405180910390f35b61037660048036038101906103719190611e7a565b6111f7565b005b610392600480360381019061038d9190611f77565b611218565b6040516103a496959493929190612194565b60405180910390f35b6103c760048036038101906103c29190611f77565b6112a1565b6040516103d49190612270565b60405180910390f35b6103f760048036038101906103f29190611e4d565b6113d9565b6040516104049190611da5565b60405180910390f35b610415611414565b6040516104229190611e32565b60405180910390f35b61044560048036038101906104409190611e4d565b611438565b005b6003602052816000526040600020818154811061046357600080fd5b90600052602060002001600091509150505481565b60007f7965db0b000000000000000000000000000000000000000000000000000000007bffffffffffffffffffffffffffffffffffffffffffffffffffffffff1916827bffffffffffffffffffffffffffffffffffffffffffffffffffffffff191614806104eb57506104ea826114bb565b5b9050919050565b600060016000838152602001908152602001600020600101549050919050565b61051a611525565b6105447f241ecf16d79d0f8dbfb92cbc07fe17840425976cf0667f022fe9877caa831b0882610547565b50565b610550826104f2565b610559816115a3565b61056383836115b7565b505050565b610570611697565b73ffffffffffffffffffffffffffffffffffffffff168173ffffffffffffffffffffffffffffffffffffffff16146105dd576040517f08c379a00000000000000000000000000000000000000000000000000000000081526004016105d49061230e565b60405180910390fd5b6105e7828261169f565b5050565b6040518060c001604052808481526020018373ffffffffffffffffffffffffffffffffffffffff1681526020018273ffffffffffffffffffffffffffffffffffffffff16815260200160008152602001600081526020016000600481111561065657610655611fee565b5b815250600260008581526020019081526020016000206000820151816000015560208201518160010160006101000a81548173ffffffffffffffffffffffffffffffffffffffff021916908373ffffffffffffffffffffffffffffffffffffffff16021790555060408201518160020160006101000a81548173ffffffffffffffffffffffffffffffffffffffff021916908373ffffffffffffffffffffffffffffffffffffffff160217905550606082015181600301556080820151816004015560a08201518160050160006101000a81548160ff0219169083600481111561074357610742611fee565b5b02179055509050506107e2600360008473ffffffffffffffffffffffffffffffffffffffff1673ffffffffffffffffffffffffffffffffffffffff1681526020019081526020016000208054806020026020016040519081016040528092919081815260200182805480156107d757602002820191906000526020600020905b8154815260200190600101908083116107c3575b505050505084611781565b61084d57600360008373ffffffffffffffffffffffffffffffffffffffff1673ffffffffffffffffffffffffffffffffffffffff1681526020019081526020016000208390806001815401808255809150506001900390600052602060002001600090919091909150555b6108e4600360008373ffffffffffffffffffffffffffffffffffffffff1673ffffffffffffffffffffffffffffffffffffffff1681526020019081526020016000208054806020026020016040519081016040528092919081815260200182805480156108d957602002820191906000526020600020905b8154815260200190600101908083116108c5575b505050505084611781565b61094f57600360008273ffffffffffffffffffffffffffffffffffffffff1673ffffffffffffffffffffffffffffffffffffffff1681526020019081526020016000208390806001815401808255809150506001900390600052602060002001600090919091909150555b505050565b60006002600084815260200190815260200160002090503373ffffffffffffffffffffffffffffffffffffffff168160010160009054906101000a900473ffffffffffffffffffffffffffffffffffffffff1673ffffffffffffffffffffffffffffffffffffffff16148015610a1957508173ffffffffffffffffffffffffffffffffffffffff168160020160009054906101000a900473ffffffffffffffffffffffffffffffffffffffff1673ffffffffffffffffffffffffffffffffffffffff16145b610a58576040517f08c379a0000000000000000000000000000000000000000000000000000000008152600401610a4f9061237a565b60405180910390fd5b60006004811115610a6c57610a6b611fee565b5b8160050160009054906101000a900460ff166004811115610a9057610a8f611fee565b5b14610ad0576040517f08c379a0000000000000000000000000000000000000000000000000000000008152600401610ac7906123e6565b60405180910390fd5b60018160050160006101000a81548160ff02191690836004811115610af857610af7611fee565b5b0217905550428160030181905550505050565b60006002600084815260200190815260200160002090508173ffffffffffffffffffffffffffffffffffffffff168160010160009054906101000a900473ffffffffffffffffffffffffffffffffffffffff1673ffffffffffffffffffffffffffffffffffffffff16148015610bd057503373ffffffffffffffffffffffffffffffffffffffff168160020160009054906101000a900473ffffffffffffffffffffffffffffffffffffffff1673ffffffffffffffffffffffffffffffffffffffff16145b610c0f576040517f08c379a0000000000000000000000000000000000000000000000000000000008152600401610c069061237a565b60405180910390fd5b60016004811115610c2357610c22611fee565b5b8160050160009054906101000a900460ff166004811115610c4757610c46611fee565b5b14610c87576040517f08c379a0000000000000000000000000000000000000000000000000000000008152600401610c7e906123e6565b60405180910390fd5b60028160050160006101000a81548160ff02191690836004811115610caf57610cae611fee565b5b0217905550428160040181905550505050565b610cca611525565b610cd460006117dc565b565b60008060009054906101000a900473ffffffffffffffffffffffffffffffffffffffff16905090565b60006001600084815260200190815260200160002060000160008373ffffffffffffffffffffffffffffffffffffffff1673ffffffffffffffffffffffffffffffffffffffff16815260200190815260200160002060009054906101000a900460ff16905092915050565b6000801b81565b600060026000838152602001908152602001600020905060016004811115610d9c57610d9b611fee565b5b8160050160009054906101000a900460ff166004811115610dc057610dbf611fee565b5b1480610e01575060026004811115610ddb57610dda611fee565b5b8160050160009054906101000a900460ff166004811115610dff57610dfe611fee565b5b145b610e0a57600080fd5b60048160050160006101000a81548160ff02191690836004811115610e3257610e31611fee565b5b02179055503373ffffffffffffffffffffffffffffffffffffffff167f572f38326c0f991573fca9ec611774793ead7d7ad10d3250a0db6fb12aa78d32604051610e7b90612452565b60405180910390a25050565b610e8f611525565b610eb97f241ecf16d79d0f8dbfb92cbc07fe17840425976cf0667f022fe9877caa831b08826111f7565b50565b60606000600360008473ffffffffffffffffffffffffffffffffffffffff1673ffffffffffffffffffffffffffffffffffffffff168152602001908152602001600020805480602002602001604051908101604052809291908181526020018280548015610f4957602002820191906000526020600020905b815481526020019060010190808311610f35575b505050505090506000815167ffffffffffffffff811115610f6d57610f6c612472565b5b604051908082528060200260200182016040528015610fa657816020015b610f93611b8e565b815260200190600190039081610f8b5790505b5090506000805b83518110156111eb57600060026000868481518110610fcf57610fce6124a1565b5b6020026020010151815260200190815260200160002090508673ffffffffffffffffffffffffffffffffffffffff168160010160009054906101000a900473ffffffffffffffffffffffffffffffffffffffff1673ffffffffffffffffffffffffffffffffffffffff16148061109457508673ffffffffffffffffffffffffffffffffffffffff168160020160009054906101000a900473ffffffffffffffffffffffffffffffffffffffff1673ffffffffffffffffffffffffffffffffffffffff16145b156111d757806040518060c0016040529081600082015481526020016001820160009054906101000a900473ffffffffffffffffffffffffffffffffffffffff1673ffffffffffffffffffffffffffffffffffffffff1673ffffffffffffffffffffffffffffffffffffffff1681526020016002820160009054906101000a900473ffffffffffffffffffffffffffffffffffffffff1673ffffffffffffffffffffffffffffffffffffffff1673ffffffffffffffffffffffffffffffffffffffff16815260200160038201548152602001600482015481526020016005820160009054906101000a900460ff16600481111561119457611193611fee565b5b60048111156111a6576111a5611fee565b5b815250508484815181106111bd576111bc6124a1565b5b602002602001018190525082806111d3906124ff565b9350505b5080806111e3906124ff565b915050610fad565b50819350505050919050565b611200826104f2565b611209816115a3565b611213838361169f565b505050565b60026020528060005260406000206000915090508060000154908060010160009054906101000a900473ffffffffffffffffffffffffffffffffffffffff16908060020160009054906101000a900473ffffffffffffffffffffffffffffffffffffffff16908060030154908060040154908060050160009054906101000a900460ff16905086565b6112a9611b8e565b6000600260008481526020019081526020016000209050806040518060c0016040529081600082015481526020016001820160009054906101000a900473ffffffffffffffffffffffffffffffffffffffff1673ffffffffffffffffffffffffffffffffffffffff1673ffffffffffffffffffffffffffffffffffffffff1681526020016002820160009054906101000a900473ffffffffffffffffffffffffffffffffffffffff1673ffffffffffffffffffffffffffffffffffffffff1673ffffffffffffffffffffffffffffffffffffffff16815260200160038201548152602001600482015481526020016005820160009054906101000a900460ff1660048111156113bb576113ba611fee565b5b60048111156113cd576113cc611fee565b5b81525050915050919050565b60006113e3611525565b61140d7f241ecf16d79d0f8dbfb92cbc07fe17840425976cf0667f022fe9877caa831b0883610cff565b9050919050565b7f241ecf16d79d0f8dbfb92cbc07fe17840425976cf0667f022fe9877caa831b0881565b611440611525565b600073ffffffffffffffffffffffffffffffffffffffff168173ffffffffffffffffffffffffffffffffffffffff16036114af576040517f08c379a00000000000000000000000000000000000000000000000000000000081526004016114a6906125b9565b60405180910390fd5b6114b8816117dc565b50565b60007f01ffc9a7000000000000000000000000000000000000000000000000000000007bffffffffffffffffffffffffffffffffffffffffffffffffffffffff1916827bffffffffffffffffffffffffffffffffffffffffffffffffffffffff1916149050919050565b61152d611697565b73ffffffffffffffffffffffffffffffffffffffff1661154b610cd6565b73ffffffffffffffffffffffffffffffffffffffff16146115a1576040517f08c379a000000000000000000000000000000000000000000000000000000000815260040161159890612625565b60405180910390fd5b565b6115b4816115af611697565b6118a0565b50565b6115c18282610cff565b61169357600180600084815260200190815260200160002060000160008373ffffffffffffffffffffffffffffffffffffffff1673ffffffffffffffffffffffffffffffffffffffff16815260200190815260200160002060006101000a81548160ff021916908315150217905550611638611697565b73ffffffffffffffffffffffffffffffffffffffff168173ffffffffffffffffffffffffffffffffffffffff16837f2f8788117e7eff1d82e926ec794901d17c78024a50270940304540a733656f0d60405160405180910390a45b5050565b600033905090565b6116a98282610cff565b1561177d5760006001600084815260200190815260200160002060000160008373ffffffffffffffffffffffffffffffffffffffff1673ffffffffffffffffffffffffffffffffffffffff16815260200190815260200160002060006101000a81548160ff021916908315150217905550611722611697565b73ffffffffffffffffffffffffffffffffffffffff168173ffffffffffffffffffffffffffffffffffffffff16837ff6391f5c32d9c69d2a47ea670b442974b53935d1edc7fd64eb21e047a839171b60405160405180910390a45b5050565b600080600090505b83518110156117d057828482815181106117a6576117a56124a1565b5b6020026020010151036117bd5760019150506117d6565b80806117c8906124ff565b915050611789565b50600090505b92915050565b60008060009054906101000a900473ffffffffffffffffffffffffffffffffffffffff169050816000806101000a81548173ffffffffffffffffffffffffffffffffffffffff021916908373ffffffffffffffffffffffffffffffffffffffff1602179055508173ffffffffffffffffffffffffffffffffffffffff168173ffffffffffffffffffffffffffffffffffffffff167f8be0079c531659141344cd1fd0a4f28419497f9722a3daafe3b4186f6b6457e060405160405180910390a35050565b6118aa8282610cff565b611921576118b781611925565b6118c58360001c6020611952565b6040516020016118d692919061274e565b6040516020818303038152906040526040517f08c379a000000000000000000000000000000000000000000000000000000000815260040161191891906127d2565b60405180910390fd5b5050565b606061194b8273ffffffffffffffffffffffffffffffffffffffff16601460ff16611952565b9050919050565b60606000600283600261196591906127f4565b61196f9190612836565b67ffffffffffffffff81111561198857611987612472565b5b6040519080825280601f01601f1916602001820160405280156119ba5781602001600182028036833780820191505090505b5090507f3000000000000000000000000000000000000000000000000000000000000000816000815181106119f2576119f16124a1565b5b60200101907effffffffffffffffffffffffffffffffffffffffffffffffffffffffffffff1916908160001a9053507f780000000000000000000000000000000000000000000000000000000000000081600181518110611a5657611a556124a1565b5b60200101907effffffffffffffffffffffffffffffffffffffffffffffffffffffffffffff1916908160001a90535060006001846002611a9691906127f4565b611aa09190612836565b90505b6001811115611b40577f3031323334353637383961626364656600000000000000000000000000000000600f861660108110611ae257611ae16124a1565b5b1a60f81b828281518110611af957611af86124a1565b5b60200101907effffffffffffffffffffffffffffffffffffffffffffffffffffffffffffff1916908160001a905350600485901c945080611b399061286a565b9050611aa3565b5060008414611b84576040517f08c379a0000000000000000000000000000000000000000000000000000000008152600401611b7b906128df565b60405180910390fd5b8091505092915050565b6040518060c0016040528060008152602001600073ffffffffffffffffffffffffffffffffffffffff168152602001600073ffffffffffffffffffffffffffffffffffffffff168152602001600081526020016000815260200160006004811115611bfc57611bfb611fee565b5b81525090565b600080fd5b600073ffffffffffffffffffffffffffffffffffffffff82169050919050565b6000611c3282611c07565b9050919050565b611c4281611c27565b8114611c4d57600080fd5b50565b600081359050611c5f81611c39565b92915050565b6000819050919050565b611c7881611c65565b8114611c8357600080fd5b50565b600081359050611c9581611c6f565b92915050565b60008060408385031215611cb257611cb1611c02565b5b6000611cc085828601611c50565b9250506020611cd185828601611c86565b9150509250929050565b611ce481611c65565b82525050565b6000602082019050611cff6000830184611cdb565b92915050565b60007fffffffff0000000000000000000000000000000000000000000000000000000082169050919050565b611d3a81611d05565b8114611d4557600080fd5b50565b600081359050611d5781611d31565b92915050565b600060208284031215611d7357611d72611c02565b5b6000611d8184828501611d48565b91505092915050565b60008115159050919050565b611d9f81611d8a565b82525050565b6000602082019050611dba6000830184611d96565b92915050565b6000819050919050565b611dd381611dc0565b8114611dde57600080fd5b50565b600081359050611df081611dca565b92915050565b600060208284031215611e0c57611e0b611c02565b5b6000611e1a84828501611de1565b91505092915050565b611e2c81611dc0565b82525050565b6000602082019050611e476000830184611e23565b92915050565b600060208284031215611e6357611e62611c02565b5b6000611e7184828501611c50565b91505092915050565b60008060408385031215611e9157611e90611c02565b5b6000611e9f85828601611de1565b9250506020611eb085828601611c50565b9150509250929050565b600080600060608486031215611ed357611ed2611c02565b5b6000611ee186828701611c86565b9350506020611ef286828701611c50565b9250506040611f0386828701611c50565b9150509250925092565b60008060408385031215611f2457611f23611c02565b5b6000611f3285828601611c86565b9250506020611f4385828601611c50565b9150509250929050565b611f5681611c27565b82525050565b6000602082019050611f716000830184611f4d565b92915050565b600060208284031215611f8d57611f8c611c02565b5b6000611f9b84828501611c86565b91505092915050565b600081519050919050565b600082825260208201905092915050565b6000819050602082019050919050565b611fd981611c65565b82525050565b611fe881611c27565b82525050565b7f4e487b7100000000000000000000000000000000000000000000000000000000600052602160045260246000fd5b6005811061202e5761202d611fee565b5b50565b600081905061203f8261201d565b919050565b600061204f82612031565b9050919050565b61205f81612044565b82525050565b60c08201600082015161207b6000850182611fd0565b50602082015161208e6020850182611fdf565b5060408201516120a16040850182611fdf565b5060608201516120b46060850182611fd0565b5060808201516120c76080850182611fd0565b5060a08201516120da60a0850182612056565b50505050565b60006120ec8383612065565b60c08301905092915050565b6000602082019050919050565b600061211082611fa4565b61211a8185611faf565b935061212583611fc0565b8060005b8381101561215657815161213d88826120e0565b9750612148836120f8565b925050600181019050612129565b5085935050505092915050565b6000602082019050818103600083015261217d8184612105565b905092915050565b61218e81612044565b82525050565b600060c0820190506121a96000830189611cdb565b6121b66020830188611f4d565b6121c36040830187611f4d565b6121d06060830186611cdb565b6121dd6080830185611cdb565b6121ea60a0830184612185565b979650505050505050565b60c08201600082015161220b6000850182611fd0565b50602082015161221e6020850182611fdf565b5060408201516122316040850182611fdf565b5060608201516122446060850182611fd0565b5060808201516122576080850182611fd0565b5060a082015161226a60a0850182612056565b50505050565b600060c08201905061228560008301846121f5565b92915050565b600082825260208201905092915050565b7f416363657373436f6e74726f6c3a2063616e206f6e6c792072656e6f756e636560008201527f20726f6c657320666f722073656c660000000000000000000000000000000000602082015250565b60006122f8602f8361228b565b91506123038261229c565b604082019050919050565b60006020820190508181036000830152612327816122eb565b9050919050565b7f496e76616c69642073656e646572206f72207265636569766572000000000000600082015250565b6000612364601a8361228b565b915061236f8261232e565b602082019050919050565b6000602082019050818103600083015261239381612357565b9050919050565b7f496e76616c6964207472616e7369742073746174757300000000000000000000600082015250565b60006123d060168361228b565b91506123db8261239a565b602082019050919050565b600060208201905081810360008301526123ff816123c3565b9050919050565b7f54414d5045524544000000000000000000000000000000000000000000000000600082015250565b600061243c60088361228b565b915061244782612406565b602082019050919050565b6000602082019050818103600083015261246b8161242f565b9050919050565b7f4e487b7100000000000000000000000000000000000000000000000000000000600052604160045260246000fd5b7f4e487b7100000000000000000000000000000000000000000000000000000000600052603260045260246000fd5b7f4e487b7100000000000000000000000000000000000000000000000000000000600052601160045260246000fd5b600061250a82611c65565b91507fffffffffffffffffffffffffffffffffffffffffffffffffffffffffffffffff820361253c5761253b6124d0565b5b600182019050919050565b7f4f776e61626c653a206e6577206f776e657220697320746865207a65726f206160008201527f6464726573730000000000000000000000000000000000000000000000000000602082015250565b60006125a360268361228b565b91506125ae82612547565b604082019050919050565b600060208201905081810360008301526125d281612596565b9050919050565b7f4f776e61626c653a2063616c6c6572206973206e6f7420746865206f776e6572600082015250565b600061260f60208361228b565b915061261a826125d9565b602082019050919050565b6000602082019050818103600083015261263e81612602565b9050919050565b600081905092915050565b7f416363657373436f6e74726f6c3a206163636f756e7420000000000000000000600082015250565b6000612686601783612645565b915061269182612650565b601782019050919050565b600081519050919050565b60005b838110156126c55780820151818401526020810190506126aa565b60008484015250505050565b60006126dc8261269c565b6126e68185612645565b93506126f68185602086016126a7565b80840191505092915050565b7f206973206d697373696e6720726f6c6520000000000000000000000000000000600082015250565b6000612738601183612645565b915061274382612702565b601182019050919050565b600061275982612679565b915061276582856126d1565b91506127708261272b565b915061277c82846126d1565b91508190509392505050565b6000601f19601f8301169050919050565b60006127a48261269c565b6127ae818561228b565b93506127be8185602086016126a7565b6127c781612788565b840191505092915050565b600060208201905081810360008301526127ec8184612799565b905092915050565b60006127ff82611c65565b915061280a83611c65565b925082820261281881611c65565b9150828204841483151761282f5761282e6124d0565b5b5092915050565b600061284182611c65565b915061284c83611c65565b9250828201905080821115612864576128636124d0565b5b92915050565b600061287582611c65565b915060008203612888576128876124d0565b5b600182039050919050565b7f537472696e67733a20686578206c656e67746820696e73756666696369656e74600082015250565b60006128c960208361228b565b91506128d482612893565b602082019050919050565b600060208201905081810360008301526128f8816128bc565b905091905056fea2646970667358221220b0bad61c7ad3098b942aacf0ff20043c2334729b7005321f44c243570c65f3d764736f6c63430008130033",
  "immutableReferences": {},
  "source": "\r\n// SPDX-License-Identifier: MIT\r\npragma solidity 0.8.19;\r\n\r\nimport \"@openzeppelin/contracts/access/AccessControl.sol\";\r\nimport \"@openzeppelin/contracts/access/Ownable.sol\";\r\n\r\ncontract Transit is Ownable, AccessControl {\r\n    bytes32 public constant MANAGER_ROLE = keccak256(\"MANAGER_ROLE\");\r\n\r\n    constructor() Ownable() {\r\n        _grantRole(DEFAULT_ADMIN_ROLE, msg.sender);\r\n    }\r\n    enum transitStatus {\r\n        PENDING,\r\n        IN_TRANSIT,\r\n        RECEIVED,\r\n        RECEIVED_FINAL,\r\n        TAMPERED\r\n    }\r\n\r\n    event Tampered(address indexed sender, string message);\r\n\r\n    struct Details {\r\n        uint transitId; // New field to store the transit ID\r\n        address sender;\r\n        address receiver;\r\n        uint pickupTime;\r\n        uint deliveryTime;\r\n        transitStatus status;\r\n    }\r\n\r\n    mapping(uint => Details) public transits;\r\n    mapping(address => uint[]) public transitIdsByAddress;\r\n    function registerManager(address manager) public onlyOwner {\r\n        grantRole(MANAGER_ROLE, manager);\r\n    }\r\n\r\n    function removeManager(address manager) public onlyOwner {\r\n        revokeRole(MANAGER_ROLE, manager);\r\n    }\r\n\r\n    function checkManager(\r\n        address manager\r\n    ) public view onlyOwner returns (bool) {\r\n        return hasRole(MANAGER_ROLE, manager);\r\n    }\r\n\r\n    function createTransit(\r\n        uint _transitId,\r\n        address _sender,\r\n        address _receiver\r\n    ) external {\r\n        transits[_transitId] = Details(\r\n            _transitId,\r\n            _sender,\r\n            _receiver,\r\n            0,\r\n            0,\r\n            transitStatus.PENDING\r\n        );\r\n\r\n        if (!isTransitIdExists(transitIdsByAddress[_sender], _transitId)) {\r\n            transitIdsByAddress[_sender].push(_transitId);\r\n        }\r\n\r\n        if (!isTransitIdExists(transitIdsByAddress[_receiver], _transitId)) {\r\n            transitIdsByAddress[_receiver].push(_transitId);\r\n        }\r\n    }\r\n\r\n    function startTransit(uint _transitId, address _receiver) external {\r\n        Details storage detail = transits[_transitId];\r\n        require(\r\n            detail.sender == msg.sender && detail.receiver == _receiver,\r\n            \"Invalid sender or receiver\"\r\n        );\r\n        require(\r\n            detail.status == transitStatus.PENDING,\r\n            \"Invalid transit status\"\r\n        );\r\n        detail.status = transitStatus.IN_TRANSIT;\r\n        detail.pickupTime = block.timestamp;\r\n    }\r\n\r\n    function receiveTransit(uint _transitId, address _sender) external {\r\n        Details storage detail = transits[_transitId];\r\n        require(\r\n            detail.sender == _sender && detail.receiver == msg.sender,\r\n            \"Invalid sender or receiver\"\r\n        );\r\n        require(\r\n            detail.status == transitStatus.IN_TRANSIT,\r\n            \"Invalid transit status\"\r\n        );\r\n        detail.status = transitStatus.RECEIVED;\r\n        detail.deliveryTime = block.timestamp;\r\n    }\r\n\r\n    function getTransitsByAddress(\r\n        address _address\r\n    ) public view returns (Details[] memory) {\r\n        uint[] memory transitIds = transitIdsByAddress[_address];\r\n        Details[] memory result = new Details[](transitIds.length);\r\n        uint resultIndex = 0;\r\n\r\n        for (uint i = 0; i < transitIds.length; i++) {\r\n            Details storage detail = transits[transitIds[i]];\r\n            if (detail.sender == _address || detail.receiver == _address) {\r\n                result[resultIndex] = detail;\r\n                resultIndex++;\r\n            }\r\n        }\r\n\r\n        return result;\r\n    }\r\n\r\n    function isTransitIdExists(\r\n        uint[] memory ids,\r\n        uint id\r\n    ) internal pure returns (bool) {\r\n        for (uint i = 0; i < ids.length; i++) {\r\n            if (ids[i] == id) {\r\n                return true;\r\n            }\r\n        }\r\n        return false;\r\n    }\r\n\r\n    function tempTampered(uint _transitID) external {\r\n        Details storage detail = transits[_transitID];\r\n        require(\r\n            detail.status == transitStatus.IN_TRANSIT ||\r\n                detail.status == transitStatus.RECEIVED\r\n        );\r\n        detail.status = transitStatus.TAMPERED;\r\n        emit Tampered(msg.sender, \"TAMPERED\");\r\n    }\r\n\r\n    function getTransitbyID(\r\n        uint _transitID\r\n    ) public view returns (Details memory) {\r\n        Details storage detail = transits[_transitID];\r\n        return detail;\r\n    }\r\n}\r\n\r\n\r\n\r\n\r\n",
  "sourcePath": "C:\\Users\\sanke\\AJR\\projects\\vaxcahin clone\\contracts\\Transit.sol",
  "compiler": {
    "name": "solc",
    "version": "0.8.19+commit.7dd6d404.Emscripten.clang"
  },
  "schemaVersion": "3.4.16",
  "updatedAt": "2024-04-29T04:44:24.067Z",
  "networkType": "ethereum",
  "devdoc": {
    "events": {
      "RoleAdminChanged(bytes32,bytes32,bytes32)": {
        "details": "Emitted when `newAdminRole` is set as ``role``'s admin role, replacing `previousAdminRole` `DEFAULT_ADMIN_ROLE` is the starting admin for all roles, despite {RoleAdminChanged} not being emitted signaling this. _Available since v3.1._"
      },
      "RoleGranted(bytes32,address,address)": {
        "details": "Emitted when `account` is granted `role`. `sender` is the account that originated the contract call, an admin role bearer except when using {AccessControl-_setupRole}."
      },
      "RoleRevoked(bytes32,address,address)": {
        "details": "Emitted when `account` is revoked `role`. `sender` is the account that originated the contract call:   - if using `revokeRole`, it is the admin role bearer   - if using `renounceRole`, it is the role bearer (i.e. `account`)"
      }
    },
    "kind": "dev",
    "methods": {
      "getRoleAdmin(bytes32)": {
        "details": "Returns the admin role that controls `role`. See {grantRole} and {revokeRole}. To change a role's admin, use {_setRoleAdmin}."
      },
      "grantRole(bytes32,address)": {
        "details": "Grants `role` to `account`. If `account` had not been already granted `role`, emits a {RoleGranted} event. Requirements: - the caller must have ``role``'s admin role. May emit a {RoleGranted} event."
      },
      "hasRole(bytes32,address)": {
        "details": "Returns `true` if `account` has been granted `role`."
      },
      "owner()": {
        "details": "Returns the address of the current owner."
      },
      "renounceOwnership()": {
        "details": "Leaves the contract without owner. It will not be possible to call `onlyOwner` functions. Can only be called by the current owner. NOTE: Renouncing ownership will leave the contract without an owner, thereby disabling any functionality that is only available to the owner."
      },
      "renounceRole(bytes32,address)": {
        "details": "Revokes `role` from the calling account. Roles are often managed via {grantRole} and {revokeRole}: this function's purpose is to provide a mechanism for accounts to lose their privileges if they are compromised (such as when a trusted device is misplaced). If the calling account had been revoked `role`, emits a {RoleRevoked} event. Requirements: - the caller must be `account`. May emit a {RoleRevoked} event."
      },
      "revokeRole(bytes32,address)": {
        "details": "Revokes `role` from `account`. If `account` had been granted `role`, emits a {RoleRevoked} event. Requirements: - the caller must have ``role``'s admin role. May emit a {RoleRevoked} event."
      },
      "supportsInterface(bytes4)": {
        "details": "See {IERC165-supportsInterface}."
      },
      "transferOwnership(address)": {
        "details": "Transfers ownership of the contract to a new account (`newOwner`). Can only be called by the current owner."
      }
    },
    "version": 1
  },
  "userdoc": {
    "kind": "user",
    "methods": {},
    "version": 1
  }
}